{
  "_format": "hh-sol-artifact-1",
  "contractName": "Bep20Token",
  "sourceName": "contracts/Bep20Token.sol",
  "abi": [
    {
      "inputs": [
        {
          "internalType": "string",
          "name": "tokenName",
          "type": "string"
        },
        {
          "internalType": "string",
          "name": "tokenSymbol",
          "type": "string"
        },
        {
          "internalType": "uint256",
          "name": "initialSupply",
          "type": "uint256"
        }
      ],
      "stateMutability": "nonpayable",
      "type": "constructor"
    },
    {
      "anonymous": false,
      "inputs": [
        {
          "indexed": true,
          "internalType": "address",
          "name": "owner",
          "type": "address"
        },
        {
          "indexed": true,
          "internalType": "address",
          "name": "spender",
          "type": "address"
        },
        {
          "indexed": false,
          "internalType": "uint256",
          "name": "value",
          "type": "uint256"
        }
      ],
      "name": "Approval",
      "type": "event"
    },
    {
      "anonymous": false,
      "inputs": [
        {
          "indexed": true,
          "internalType": "address",
          "name": "from",
          "type": "address"
        },
        {
          "indexed": true,
          "internalType": "address",
          "name": "to",
          "type": "address"
        },
        {
          "indexed": false,
          "internalType": "uint256",
          "name": "value",
          "type": "uint256"
        }
      ],
      "name": "Transfer",
      "type": "event"
    },
    {
      "inputs": [
        {
          "internalType": "address",
          "name": "owner",
          "type": "address"
        },
        {
          "internalType": "address",
          "name": "spender",
          "type": "address"
        }
      ],
      "name": "allowance",
      "outputs": [
        {
          "internalType": "uint256",
          "name": "",
          "type": "uint256"
        }
      ],
      "stateMutability": "view",
      "type": "function"
    },
    {
      "inputs": [
        {
          "internalType": "address",
          "name": "spender",
          "type": "address"
        },
        {
          "internalType": "uint256",
          "name": "amount",
          "type": "uint256"
        }
      ],
      "name": "approve",
      "outputs": [
        {
          "internalType": "bool",
          "name": "",
          "type": "bool"
        }
      ],
      "stateMutability": "nonpayable",
      "type": "function"
    },
    {
      "inputs": [
        {
          "internalType": "address",
          "name": "account",
          "type": "address"
        }
      ],
      "name": "balanceOf",
      "outputs": [
        {
          "internalType": "uint256",
          "name": "",
          "type": "uint256"
        }
      ],
      "stateMutability": "view",
      "type": "function"
    },
    {
      "inputs": [],
      "name": "decimals",
      "outputs": [
        {
          "internalType": "uint8",
          "name": "",
          "type": "uint8"
        }
      ],
      "stateMutability": "view",
      "type": "function"
    },
    {
      "inputs": [
        {
          "internalType": "address",
          "name": "spender",
          "type": "address"
        },
        {
          "internalType": "uint256",
          "name": "subtractedValue",
          "type": "uint256"
        }
      ],
      "name": "decreaseAllowance",
      "outputs": [
        {
          "internalType": "bool",
          "name": "",
          "type": "bool"
        }
      ],
      "stateMutability": "nonpayable",
      "type": "function"
    },
    {
      "inputs": [],
      "name": "getOwner",
      "outputs": [
        {
          "internalType": "address",
          "name": "",
          "type": "address"
        }
      ],
      "stateMutability": "view",
      "type": "function"
    },
    {
      "inputs": [
        {
          "internalType": "address",
          "name": "spender",
          "type": "address"
        },
        {
          "internalType": "uint256",
          "name": "addedValue",
          "type": "uint256"
        }
      ],
      "name": "increaseAllowance",
      "outputs": [
        {
          "internalType": "bool",
          "name": "",
          "type": "bool"
        }
      ],
      "stateMutability": "nonpayable",
      "type": "function"
    },
    {
      "inputs": [],
      "name": "name",
      "outputs": [
        {
          "internalType": "string",
          "name": "",
          "type": "string"
        }
      ],
      "stateMutability": "view",
      "type": "function"
    },
    {
      "inputs": [],
      "name": "symbol",
      "outputs": [
        {
          "internalType": "string",
          "name": "",
          "type": "string"
        }
      ],
      "stateMutability": "view",
      "type": "function"
    },
    {
      "inputs": [],
      "name": "totalSupply",
      "outputs": [
        {
          "internalType": "uint256",
          "name": "",
          "type": "uint256"
        }
      ],
      "stateMutability": "view",
      "type": "function"
    },
    {
      "inputs": [
        {
          "internalType": "address",
          "name": "recipient",
          "type": "address"
        },
        {
          "internalType": "uint256",
          "name": "amount",
          "type": "uint256"
        }
      ],
      "name": "transfer",
      "outputs": [
        {
          "internalType": "bool",
          "name": "",
          "type": "bool"
        }
      ],
      "stateMutability": "nonpayable",
      "type": "function"
    },
    {
      "inputs": [
        {
          "internalType": "address",
          "name": "sender",
          "type": "address"
        },
        {
          "internalType": "address",
          "name": "recipient",
          "type": "address"
        },
        {
          "internalType": "uint256",
          "name": "amount",
          "type": "uint256"
        }
      ],
      "name": "transferFrom",
      "outputs": [
        {
          "internalType": "bool",
          "name": "",
          "type": "bool"
        }
      ],
      "stateMutability": "nonpayable",
      "type": "function"
    }
  ],
  "bytecode": "0x60806040523480156200001157600080fd5b5060405162001b4738038062001b478339818101604052810190620000379190620004d4565b82828160039080519060200190620000519291906200024c565b5080600490805190602001906200006a9291906200024c565b5050506200007f3382620000c960201b60201c565b33600560006101000a81548173ffffffffffffffffffffffffffffffffffffffff021916908373ffffffffffffffffffffffffffffffffffffffff16021790555050505062000710565b600073ffffffffffffffffffffffffffffffffffffffff168273ffffffffffffffffffffffffffffffffffffffff1614156200013c576040517f08c379a00000000000000000000000000000000000000000000000000000000081526004016200013390620005cf565b60405180910390fd5b62000150600083836200024260201b60201c565b806002600082825462000164919062000620565b92505081905550806000808473ffffffffffffffffffffffffffffffffffffffff1673ffffffffffffffffffffffffffffffffffffffff1681526020019081526020016000206000828254620001bb919062000620565b925050819055508173ffffffffffffffffffffffffffffffffffffffff16600073ffffffffffffffffffffffffffffffffffffffff167fddf252ad1be2c89b69c2b068fc378daa952ba7f163c4a11628f55a4df523b3ef836040516200022291906200068e565b60405180910390a36200023e600083836200024760201b60201c565b5050565b505050565b505050565b8280546200025a90620006da565b90600052602060002090601f0160209004810192826200027e5760008555620002ca565b82601f106200029957805160ff1916838001178555620002ca565b82800160010185558215620002ca579182015b82811115620002c9578251825591602001919060010190620002ac565b5b509050620002d99190620002dd565b5090565b5b80821115620002f8576000816000905550600101620002de565b5090565b6000604051905090565b600080fd5b600080fd5b600080fd5b600080fd5b6000601f19601f8301169050919050565b7f4e487b7100000000000000000000000000000000000000000000000000000000600052604160045260246000fd5b62000365826200031a565b810181811067ffffffffffffffff821117156200038757620003866200032b565b5b80604052505050565b60006200039c620002fc565b9050620003aa82826200035a565b919050565b600067ffffffffffffffff821115620003cd57620003cc6200032b565b5b620003d8826200031a565b9050602081019050919050565b60005b8381101562000405578082015181840152602081019050620003e8565b8381111562000415576000848401525b50505050565b6000620004326200042c84620003af565b62000390565b90508281526020810184848401111562000451576200045062000315565b5b6200045e848285620003e5565b509392505050565b600082601f8301126200047e576200047d62000310565b5b8151620004908482602086016200041b565b91505092915050565b6000819050919050565b620004ae8162000499565b8114620004ba57600080fd5b50565b600081519050620004ce81620004a3565b92915050565b600080600060608486031215620004f057620004ef62000306565b5b600084015167ffffffffffffffff8111156200051157620005106200030b565b5b6200051f8682870162000466565b935050602084015167ffffffffffffffff8111156200054357620005426200030b565b5b620005518682870162000466565b92505060406200056486828701620004bd565b9150509250925092565b600082825260208201905092915050565b7f45524332303a206d696e7420746f20746865207a65726f206164647265737300600082015250565b6000620005b7601f836200056e565b9150620005c4826200057f565b602082019050919050565b60006020820190508181036000830152620005ea81620005a8565b9050919050565b7f4e487b7100000000000000000000000000000000000000000000000000000000600052601160045260246000fd5b60006200062d8262000499565b91506200063a8362000499565b9250827fffffffffffffffffffffffffffffffffffffffffffffffffffffffffffffffff03821115620006725762000671620005f1565b5b828201905092915050565b620006888162000499565b82525050565b6000602082019050620006a560008301846200067d565b92915050565b7f4e487b7100000000000000000000000000000000000000000000000000000000600052602260045260246000fd5b60006002820490506001821680620006f357607f821691505b602082108114156200070a5762000709620006ab565b5b50919050565b61142780620007206000396000f3fe608060405234801561001057600080fd5b50600436106100b45760003560e01c806370a082311161007157806370a08231146101a3578063893d20e8146101d357806395d89b41146101f1578063a457c2d71461020f578063a9059cbb1461023f578063dd62ed3e1461026f576100b4565b806306fdde03146100b9578063095ea7b3146100d757806318160ddd1461010757806323b872dd14610125578063313ce567146101555780633950935114610173575b600080fd5b6100c161029f565b6040516100ce9190610c91565b60405180910390f35b6100f160048036038101906100ec9190610d4c565b610331565b6040516100fe9190610da7565b60405180910390f35b61010f61034f565b60405161011c9190610dd1565b60405180910390f35b61013f600480360381019061013a9190610dec565b610359565b60405161014c9190610da7565b60405180910390f35b61015d610451565b60405161016a9190610e5b565b60405180910390f35b61018d60048036038101906101889190610d4c565b61045a565b60405161019a9190610da7565b60405180910390f35b6101bd60048036038101906101b89190610e76565b610506565b6040516101ca9190610dd1565b60405180910390f35b6101db61054e565b6040516101e89190610eb2565b60405180910390f35b6101f9610578565b6040516102069190610c91565b60405180910390f35b61022960048036038101906102249190610d4c565b61060a565b6040516102369190610da7565b60405180910390f35b61025960048036038101906102549190610d4c565b6106f5565b6040516102669190610da7565b60405180910390f35b61028960048036038101906102849190610ecd565b610713565b6040516102969190610dd1565b60405180910390f35b6060600380546102ae90610f3c565b80601f01602080910402602001604051908101604052809291908181526020018280546102da90610f3c565b80156103275780601f106102fc57610100808354040283529160200191610327565b820191906000526020600020905b81548152906001019060200180831161030a57829003601f168201915b5050505050905090565b600061034561033e61079a565b84846107a2565b6001905092915050565b6000600254905090565b600061036684848461096d565b6000600160008673ffffffffffffffffffffffffffffffffffffffff1673ffffffffffffffffffffffffffffffffffffffff16815260200190815260200160002060006103b161079a565b73ffffffffffffffffffffffffffffffffffffffff1673ffffffffffffffffffffffffffffffffffffffff16815260200190815260200160002054905082811015610431576040517f08c379a000000000000000000000000000000000000000000000000000000000815260040161042890610fe0565b60405180910390fd5b6104458561043d61079a565b8584036107a2565b60019150509392505050565b60006012905090565b60006104fc61046761079a565b84846001600061047561079a565b73ffffffffffffffffffffffffffffffffffffffff1673ffffffffffffffffffffffffffffffffffffffff16815260200190815260200160002060008873ffffffffffffffffffffffffffffffffffffffff1673ffffffffffffffffffffffffffffffffffffffff168152602001908152602001600020546104f7919061102f565b6107a2565b6001905092915050565b60008060008373ffffffffffffffffffffffffffffffffffffffff1673ffffffffffffffffffffffffffffffffffffffff168152602001908152602001600020549050919050565b6000600560009054906101000a900473ffffffffffffffffffffffffffffffffffffffff16905090565b60606004805461058790610f3c565b80601f01602080910402602001604051908101604052809291908181526020018280546105b390610f3c565b80156106005780601f106105d557610100808354040283529160200191610600565b820191906000526020600020905b8154815290600101906020018083116105e357829003601f168201915b5050505050905090565b6000806001600061061961079a565b73ffffffffffffffffffffffffffffffffffffffff1673ffffffffffffffffffffffffffffffffffffffff16815260200190815260200160002060008573ffffffffffffffffffffffffffffffffffffffff1673ffffffffffffffffffffffffffffffffffffffff168152602001908152602001600020549050828110156106d6576040517f08c379a00000000000000000000000000000000000000000000000000000000081526004016106cd906110f7565b60405180910390fd5b6106ea6106e161079a565b858584036107a2565b600191505092915050565b600061070961070261079a565b848461096d565b6001905092915050565b6000600160008473ffffffffffffffffffffffffffffffffffffffff1673ffffffffffffffffffffffffffffffffffffffff16815260200190815260200160002060008373ffffffffffffffffffffffffffffffffffffffff1673ffffffffffffffffffffffffffffffffffffffff16815260200190815260200160002054905092915050565b600033905090565b600073ffffffffffffffffffffffffffffffffffffffff168373ffffffffffffffffffffffffffffffffffffffff161415610812576040517f08c379a000000000000000000000000000000000000000000000000000000000815260040161080990611189565b60405180910390fd5b600073ffffffffffffffffffffffffffffffffffffffff168273ffffffffffffffffffffffffffffffffffffffff161415610882576040517f08c379a00000000000000000000000000000000000000000000000000000000081526004016108799061121b565b60405180910390fd5b80600160008573ffffffffffffffffffffffffffffffffffffffff1673ffffffffffffffffffffffffffffffffffffffff16815260200190815260200160002060008473ffffffffffffffffffffffffffffffffffffffff1673ffffffffffffffffffffffffffffffffffffffff168152602001908152602001600020819055508173ffffffffffffffffffffffffffffffffffffffff168373ffffffffffffffffffffffffffffffffffffffff167f8c5be1e5ebec7d5bd14f71427d1e84f3dd0314c0f7b2291e5b200ac8c7c3b925836040516109609190610dd1565b60405180910390a3505050565b600073ffffffffffffffffffffffffffffffffffffffff168373ffffffffffffffffffffffffffffffffffffffff1614156109dd576040517f08c379a00000000000000000000000000000000000000000000000000000000081526004016109d4906112ad565b60405180910390fd5b600073ffffffffffffffffffffffffffffffffffffffff168273ffffffffffffffffffffffffffffffffffffffff161415610a4d576040517f08c379a0000000000000000000000000000000000000000000000000000000008152600401610a449061133f565b60405180910390fd5b610a58838383610bee565b60008060008573ffffffffffffffffffffffffffffffffffffffff1673ffffffffffffffffffffffffffffffffffffffff16815260200190815260200160002054905081811015610ade576040517f08c379a0000000000000000000000000000000000000000000000000000000008152600401610ad5906113d1565b60405180910390fd5b8181036000808673ffffffffffffffffffffffffffffffffffffffff1673ffffffffffffffffffffffffffffffffffffffff16815260200190815260200160002081905550816000808573ffffffffffffffffffffffffffffffffffffffff1673ffffffffffffffffffffffffffffffffffffffff1681526020019081526020016000206000828254610b71919061102f565b925050819055508273ffffffffffffffffffffffffffffffffffffffff168473ffffffffffffffffffffffffffffffffffffffff167fddf252ad1be2c89b69c2b068fc378daa952ba7f163c4a11628f55a4df523b3ef84604051610bd59190610dd1565b60405180910390a3610be8848484610bf3565b50505050565b505050565b505050565b600081519050919050565b600082825260208201905092915050565b60005b83811015610c32578082015181840152602081019050610c17565b83811115610c41576000848401525b50505050565b6000601f19601f8301169050919050565b6000610c6382610bf8565b610c6d8185610c03565b9350610c7d818560208601610c14565b610c8681610c47565b840191505092915050565b60006020820190508181036000830152610cab8184610c58565b905092915050565b600080fd5b600073ffffffffffffffffffffffffffffffffffffffff82169050919050565b6000610ce382610cb8565b9050919050565b610cf381610cd8565b8114610cfe57600080fd5b50565b600081359050610d1081610cea565b92915050565b6000819050919050565b610d2981610d16565b8114610d3457600080fd5b50565b600081359050610d4681610d20565b92915050565b60008060408385031215610d6357610d62610cb3565b5b6000610d7185828601610d01565b9250506020610d8285828601610d37565b9150509250929050565b60008115159050919050565b610da181610d8c565b82525050565b6000602082019050610dbc6000830184610d98565b92915050565b610dcb81610d16565b82525050565b6000602082019050610de66000830184610dc2565b92915050565b600080600060608486031215610e0557610e04610cb3565b5b6000610e1386828701610d01565b9350506020610e2486828701610d01565b9250506040610e3586828701610d37565b9150509250925092565b600060ff82169050919050565b610e5581610e3f565b82525050565b6000602082019050610e706000830184610e4c565b92915050565b600060208284031215610e8c57610e8b610cb3565b5b6000610e9a84828501610d01565b91505092915050565b610eac81610cd8565b82525050565b6000602082019050610ec76000830184610ea3565b92915050565b60008060408385031215610ee457610ee3610cb3565b5b6000610ef285828601610d01565b9250506020610f0385828601610d01565b9150509250929050565b7f4e487b7100000000000000000000000000000000000000000000000000000000600052602260045260246000fd5b60006002820490506001821680610f5457607f821691505b60208210811415610f6857610f67610f0d565b5b50919050565b7f45524332303a207472616e7366657220616d6f756e742065786365656473206160008201527f6c6c6f77616e6365000000000000000000000000000000000000000000000000602082015250565b6000610fca602883610c03565b9150610fd582610f6e565b604082019050919050565b60006020820190508181036000830152610ff981610fbd565b9050919050565b7f4e487b7100000000000000000000000000000000000000000000000000000000600052601160045260246000fd5b600061103a82610d16565b915061104583610d16565b9250827fffffffffffffffffffffffffffffffffffffffffffffffffffffffffffffffff0382111561107a57611079611000565b5b828201905092915050565b7f45524332303a2064656372656173656420616c6c6f77616e63652062656c6f7760008201527f207a65726f000000000000000000000000000000000000000000000000000000602082015250565b60006110e1602583610c03565b91506110ec82611085565b604082019050919050565b60006020820190508181036000830152611110816110d4565b9050919050565b7f45524332303a20617070726f76652066726f6d20746865207a65726f2061646460008201527f7265737300000000000000000000000000000000000000000000000000000000602082015250565b6000611173602483610c03565b915061117e82611117565b604082019050919050565b600060208201905081810360008301526111a281611166565b9050919050565b7f45524332303a20617070726f766520746f20746865207a65726f20616464726560008201527f7373000000000000000000000000000000000000000000000000000000000000602082015250565b6000611205602283610c03565b9150611210826111a9565b604082019050919050565b60006020820190508181036000830152611234816111f8565b9050919050565b7f45524332303a207472616e736665722066726f6d20746865207a65726f20616460008201527f6472657373000000000000000000000000000000000000000000000000000000602082015250565b6000611297602583610c03565b91506112a28261123b565b604082019050919050565b600060208201905081810360008301526112c68161128a565b9050919050565b7f45524332303a207472616e7366657220746f20746865207a65726f206164647260008201527f6573730000000000000000000000000000000000000000000000000000000000602082015250565b6000611329602383610c03565b9150611334826112cd565b604082019050919050565b600060208201905081810360008301526113588161131c565b9050919050565b7f45524332303a207472616e7366657220616d6f756e742065786365656473206260008201527f616c616e63650000000000000000000000000000000000000000000000000000602082015250565b60006113bb602683610c03565b91506113c68261135f565b604082019050919050565b600060208201905081810360008301526113ea816113ae565b905091905056fea2646970667358221220282644bc6d7f32bde0b94a95a3dcc5c1aff4e619371c9bbfe3d0b5cc455b20c764736f6c634300080a0033",
  "linkReferences": {},
  "deployedLinkReferences": {}
}