{
  "_format": "hh-sol-artifact-1",
  "contractName": "Bep20TokenAll",
  "sourceName": "contracts/Bep20TokenAll.sol",
  "abi": [
    {
      "inputs": [
        {
          "internalType": "string",
          "name": "tokenName",
          "type": "string"
        },
        {
          "internalType": "string",
          "name": "tokenSymbol",
          "type": "string"
        },
        {
          "internalType": "uint256",
          "name": "initialSupply",
          "type": "uint256"
        }
      ],
      "stateMutability": "nonpayable",
      "type": "constructor"
    },
    {
      "anonymous": false,
      "inputs": [
        {
          "indexed": true,
          "internalType": "address",
          "name": "owner",
          "type": "address"
        },
        {
          "indexed": true,
          "internalType": "address",
          "name": "spender",
          "type": "address"
        },
        {
          "indexed": false,
          "internalType": "uint256",
          "name": "value",
          "type": "uint256"
        }
      ],
      "name": "Approval",
      "type": "event"
    },
    {
      "anonymous": false,
      "inputs": [
        {
          "indexed": true,
          "internalType": "address",
          "name": "delegator",
          "type": "address"
        },
        {
          "indexed": true,
          "internalType": "address",
          "name": "fromDelegate",
          "type": "address"
        },
        {
          "indexed": true,
          "internalType": "address",
          "name": "toDelegate",
          "type": "address"
        }
      ],
      "name": "DelegateChanged",
      "type": "event"
    },
    {
      "anonymous": false,
      "inputs": [
        {
          "indexed": true,
          "internalType": "address",
          "name": "delegate",
          "type": "address"
        },
        {
          "indexed": false,
          "internalType": "uint256",
          "name": "previousBalance",
          "type": "uint256"
        },
        {
          "indexed": false,
          "internalType": "uint256",
          "name": "newBalance",
          "type": "uint256"
        }
      ],
      "name": "DelegateVotesChanged",
      "type": "event"
    },
    {
      "anonymous": false,
      "inputs": [
        {
          "indexed": false,
          "internalType": "address",
          "name": "account",
          "type": "address"
        }
      ],
      "name": "Paused",
      "type": "event"
    },
    {
      "anonymous": false,
      "inputs": [
        {
          "indexed": true,
          "internalType": "bytes32",
          "name": "role",
          "type": "bytes32"
        },
        {
          "indexed": true,
          "internalType": "bytes32",
          "name": "previousAdminRole",
          "type": "bytes32"
        },
        {
          "indexed": true,
          "internalType": "bytes32",
          "name": "newAdminRole",
          "type": "bytes32"
        }
      ],
      "name": "RoleAdminChanged",
      "type": "event"
    },
    {
      "anonymous": false,
      "inputs": [
        {
          "indexed": true,
          "internalType": "bytes32",
          "name": "role",
          "type": "bytes32"
        },
        {
          "indexed": true,
          "internalType": "address",
          "name": "account",
          "type": "address"
        },
        {
          "indexed": true,
          "internalType": "address",
          "name": "sender",
          "type": "address"
        }
      ],
      "name": "RoleGranted",
      "type": "event"
    },
    {
      "anonymous": false,
      "inputs": [
        {
          "indexed": true,
          "internalType": "bytes32",
          "name": "role",
          "type": "bytes32"
        },
        {
          "indexed": true,
          "internalType": "address",
          "name": "account",
          "type": "address"
        },
        {
          "indexed": true,
          "internalType": "address",
          "name": "sender",
          "type": "address"
        }
      ],
      "name": "RoleRevoked",
      "type": "event"
    },
    {
      "anonymous": false,
      "inputs": [
        {
          "indexed": false,
          "internalType": "uint256",
          "name": "id",
          "type": "uint256"
        }
      ],
      "name": "Snapshot",
      "type": "event"
    },
    {
      "anonymous": false,
      "inputs": [
        {
          "indexed": true,
          "internalType": "address",
          "name": "from",
          "type": "address"
        },
        {
          "indexed": true,
          "internalType": "address",
          "name": "to",
          "type": "address"
        },
        {
          "indexed": false,
          "internalType": "uint256",
          "name": "value",
          "type": "uint256"
        }
      ],
      "name": "Transfer",
      "type": "event"
    },
    {
      "anonymous": false,
      "inputs": [
        {
          "indexed": false,
          "internalType": "address",
          "name": "account",
          "type": "address"
        }
      ],
      "name": "Unpaused",
      "type": "event"
    },
    {
      "inputs": [],
      "name": "DEFAULT_ADMIN_ROLE",
      "outputs": [
        {
          "internalType": "bytes32",
          "name": "",
          "type": "bytes32"
        }
      ],
      "stateMutability": "view",
      "type": "function"
    },
    {
      "inputs": [],
      "name": "DOMAIN_SEPARATOR",
      "outputs": [
        {
          "internalType": "bytes32",
          "name": "",
          "type": "bytes32"
        }
      ],
      "stateMutability": "view",
      "type": "function"
    },
    {
      "inputs": [],
      "name": "MINTER_ROLE",
      "outputs": [
        {
          "internalType": "bytes32",
          "name": "",
          "type": "bytes32"
        }
      ],
      "stateMutability": "view",
      "type": "function"
    },
    {
      "inputs": [],
      "name": "PAUSER_ROLE",
      "outputs": [
        {
          "internalType": "bytes32",
          "name": "",
          "type": "bytes32"
        }
      ],
      "stateMutability": "view",
      "type": "function"
    },
    {
      "inputs": [],
      "name": "SNAPSHOT_ROLE",
      "outputs": [
        {
          "internalType": "bytes32",
          "name": "",
          "type": "bytes32"
        }
      ],
      "stateMutability": "view",
      "type": "function"
    },
    {
      "inputs": [
        {
          "internalType": "address",
          "name": "owner",
          "type": "address"
        },
        {
          "internalType": "address",
          "name": "spender",
          "type": "address"
        }
      ],
      "name": "allowance",
      "outputs": [
        {
          "internalType": "uint256",
          "name": "",
          "type": "uint256"
        }
      ],
      "stateMutability": "view",
      "type": "function"
    },
    {
      "inputs": [
        {
          "internalType": "address",
          "name": "spender",
          "type": "address"
        },
        {
          "internalType": "uint256",
          "name": "amount",
          "type": "uint256"
        }
      ],
      "name": "approve",
      "outputs": [
        {
          "internalType": "bool",
          "name": "",
          "type": "bool"
        }
      ],
      "stateMutability": "nonpayable",
      "type": "function"
    },
    {
      "inputs": [
        {
          "internalType": "address",
          "name": "account",
          "type": "address"
        }
      ],
      "name": "balanceOf",
      "outputs": [
        {
          "internalType": "uint256",
          "name": "",
          "type": "uint256"
        }
      ],
      "stateMutability": "view",
      "type": "function"
    },
    {
      "inputs": [
        {
          "internalType": "address",
          "name": "account",
          "type": "address"
        },
        {
          "internalType": "uint256",
          "name": "snapshotId",
          "type": "uint256"
        }
      ],
      "name": "balanceOfAt",
      "outputs": [
        {
          "internalType": "uint256",
          "name": "",
          "type": "uint256"
        }
      ],
      "stateMutability": "view",
      "type": "function"
    },
    {
      "inputs": [
        {
          "internalType": "uint256",
          "name": "amount",
          "type": "uint256"
        }
      ],
      "name": "burn",
      "outputs": [],
      "stateMutability": "nonpayable",
      "type": "function"
    },
    {
      "inputs": [
        {
          "internalType": "address",
          "name": "account",
          "type": "address"
        },
        {
          "internalType": "uint256",
          "name": "amount",
          "type": "uint256"
        }
      ],
      "name": "burnFrom",
      "outputs": [],
      "stateMutability": "nonpayable",
      "type": "function"
    },
    {
      "inputs": [
        {
          "internalType": "address",
          "name": "account",
          "type": "address"
        },
        {
          "internalType": "uint32",
          "name": "pos",
          "type": "uint32"
        }
      ],
      "name": "checkpoints",
      "outputs": [
        {
          "components": [
            {
              "internalType": "uint32",
              "name": "fromBlock",
              "type": "uint32"
            },
            {
              "internalType": "uint224",
              "name": "votes",
              "type": "uint224"
            }
          ],
          "internalType": "struct ERC20Votes.Checkpoint",
          "name": "",
          "type": "tuple"
        }
      ],
      "stateMutability": "view",
      "type": "function"
    },
    {
      "inputs": [],
      "name": "decimals",
      "outputs": [
        {
          "internalType": "uint8",
          "name": "",
          "type": "uint8"
        }
      ],
      "stateMutability": "view",
      "type": "function"
    },
    {
      "inputs": [
        {
          "internalType": "address",
          "name": "spender",
          "type": "address"
        },
        {
          "internalType": "uint256",
          "name": "subtractedValue",
          "type": "uint256"
        }
      ],
      "name": "decreaseAllowance",
      "outputs": [
        {
          "internalType": "bool",
          "name": "",
          "type": "bool"
        }
      ],
      "stateMutability": "nonpayable",
      "type": "function"
    },
    {
      "inputs": [
        {
          "internalType": "address",
          "name": "delegatee",
          "type": "address"
        }
      ],
      "name": "delegate",
      "outputs": [],
      "stateMutability": "nonpayable",
      "type": "function"
    },
    {
      "inputs": [
        {
          "internalType": "address",
          "name": "delegatee",
          "type": "address"
        },
        {
          "internalType": "uint256",
          "name": "nonce",
          "type": "uint256"
        },
        {
          "internalType": "uint256",
          "name": "expiry",
          "type": "uint256"
        },
        {
          "internalType": "uint8",
          "name": "v",
          "type": "uint8"
        },
        {
          "internalType": "bytes32",
          "name": "r",
          "type": "bytes32"
        },
        {
          "internalType": "bytes32",
          "name": "s",
          "type": "bytes32"
        }
      ],
      "name": "delegateBySig",
      "outputs": [],
      "stateMutability": "nonpayable",
      "type": "function"
    },
    {
      "inputs": [
        {
          "internalType": "address",
          "name": "account",
          "type": "address"
        }
      ],
      "name": "delegates",
      "outputs": [
        {
          "internalType": "address",
          "name": "",
          "type": "address"
        }
      ],
      "stateMutability": "view",
      "type": "function"
    },
    {
      "inputs": [
        {
          "internalType": "address",
          "name": "token",
          "type": "address"
        },
        {
          "internalType": "uint256",
          "name": "amount",
          "type": "uint256"
        }
      ],
      "name": "flashFee",
      "outputs": [
        {
          "internalType": "uint256",
          "name": "",
          "type": "uint256"
        }
      ],
      "stateMutability": "view",
      "type": "function"
    },
    {
      "inputs": [
        {
          "internalType": "contract IERC3156FlashBorrower",
          "name": "receiver",
          "type": "address"
        },
        {
          "internalType": "address",
          "name": "token",
          "type": "address"
        },
        {
          "internalType": "uint256",
          "name": "amount",
          "type": "uint256"
        },
        {
          "internalType": "bytes",
          "name": "data",
          "type": "bytes"
        }
      ],
      "name": "flashLoan",
      "outputs": [
        {
          "internalType": "bool",
          "name": "",
          "type": "bool"
        }
      ],
      "stateMutability": "nonpayable",
      "type": "function"
    },
    {
      "inputs": [],
      "name": "getOwner",
      "outputs": [
        {
          "internalType": "address",
          "name": "",
          "type": "address"
        }
      ],
      "stateMutability": "view",
      "type": "function"
    },
    {
      "inputs": [
        {
          "internalType": "uint256",
          "name": "blockNumber",
          "type": "uint256"
        }
      ],
      "name": "getPastTotalSupply",
      "outputs": [
        {
          "internalType": "uint256",
          "name": "",
          "type": "uint256"
        }
      ],
      "stateMutability": "view",
      "type": "function"
    },
    {
      "inputs": [
        {
          "internalType": "address",
          "name": "account",
          "type": "address"
        },
        {
          "internalType": "uint256",
          "name": "blockNumber",
          "type": "uint256"
        }
      ],
      "name": "getPastVotes",
      "outputs": [
        {
          "internalType": "uint256",
          "name": "",
          "type": "uint256"
        }
      ],
      "stateMutability": "view",
      "type": "function"
    },
    {
      "inputs": [
        {
          "internalType": "bytes32",
          "name": "role",
          "type": "bytes32"
        }
      ],
      "name": "getRoleAdmin",
      "outputs": [
        {
          "internalType": "bytes32",
          "name": "",
          "type": "bytes32"
        }
      ],
      "stateMutability": "view",
      "type": "function"
    },
    {
      "inputs": [
        {
          "internalType": "bytes32",
          "name": "role",
          "type": "bytes32"
        },
        {
          "internalType": "uint256",
          "name": "index",
          "type": "uint256"
        }
      ],
      "name": "getRoleMember",
      "outputs": [
        {
          "internalType": "address",
          "name": "",
          "type": "address"
        }
      ],
      "stateMutability": "view",
      "type": "function"
    },
    {
      "inputs": [
        {
          "internalType": "bytes32",
          "name": "role",
          "type": "bytes32"
        }
      ],
      "name": "getRoleMemberCount",
      "outputs": [
        {
          "internalType": "uint256",
          "name": "",
          "type": "uint256"
        }
      ],
      "stateMutability": "view",
      "type": "function"
    },
    {
      "inputs": [
        {
          "internalType": "address",
          "name": "account",
          "type": "address"
        }
      ],
      "name": "getVotes",
      "outputs": [
        {
          "internalType": "uint256",
          "name": "",
          "type": "uint256"
        }
      ],
      "stateMutability": "view",
      "type": "function"
    },
    {
      "inputs": [
        {
          "internalType": "bytes32",
          "name": "role",
          "type": "bytes32"
        },
        {
          "internalType": "address",
          "name": "account",
          "type": "address"
        }
      ],
      "name": "grantRole",
      "outputs": [],
      "stateMutability": "nonpayable",
      "type": "function"
    },
    {
      "inputs": [
        {
          "internalType": "bytes32",
          "name": "role",
          "type": "bytes32"
        },
        {
          "internalType": "address",
          "name": "account",
          "type": "address"
        }
      ],
      "name": "hasRole",
      "outputs": [
        {
          "internalType": "bool",
          "name": "",
          "type": "bool"
        }
      ],
      "stateMutability": "view",
      "type": "function"
    },
    {
      "inputs": [
        {
          "internalType": "address",
          "name": "spender",
          "type": "address"
        },
        {
          "internalType": "uint256",
          "name": "addedValue",
          "type": "uint256"
        }
      ],
      "name": "increaseAllowance",
      "outputs": [
        {
          "internalType": "bool",
          "name": "",
          "type": "bool"
        }
      ],
      "stateMutability": "nonpayable",
      "type": "function"
    },
    {
      "inputs": [
        {
          "internalType": "address",
          "name": "token",
          "type": "address"
        }
      ],
      "name": "maxFlashLoan",
      "outputs": [
        {
          "internalType": "uint256",
          "name": "",
          "type": "uint256"
        }
      ],
      "stateMutability": "view",
      "type": "function"
    },
    {
      "inputs": [
        {
          "internalType": "address",
          "name": "to",
          "type": "address"
        },
        {
          "internalType": "uint256",
          "name": "amount",
          "type": "uint256"
        }
      ],
      "name": "mint",
      "outputs": [],
      "stateMutability": "nonpayable",
      "type": "function"
    },
    {
      "inputs": [],
      "name": "name",
      "outputs": [
        {
          "internalType": "string",
          "name": "",
          "type": "string"
        }
      ],
      "stateMutability": "view",
      "type": "function"
    },
    {
      "inputs": [
        {
          "internalType": "address",
          "name": "owner",
          "type": "address"
        }
      ],
      "name": "nonces",
      "outputs": [
        {
          "internalType": "uint256",
          "name": "",
          "type": "uint256"
        }
      ],
      "stateMutability": "view",
      "type": "function"
    },
    {
      "inputs": [
        {
          "internalType": "address",
          "name": "account",
          "type": "address"
        }
      ],
      "name": "numCheckpoints",
      "outputs": [
        {
          "internalType": "uint32",
          "name": "",
          "type": "uint32"
        }
      ],
      "stateMutability": "view",
      "type": "function"
    },
    {
      "inputs": [],
      "name": "pause",
      "outputs": [],
      "stateMutability": "nonpayable",
      "type": "function"
    },
    {
      "inputs": [],
      "name": "paused",
      "outputs": [
        {
          "internalType": "bool",
          "name": "",
          "type": "bool"
        }
      ],
      "stateMutability": "view",
      "type": "function"
    },
    {
      "inputs": [
        {
          "internalType": "address",
          "name": "owner",
          "type": "address"
        },
        {
          "internalType": "address",
          "name": "spender",
          "type": "address"
        },
        {
          "internalType": "uint256",
          "name": "value",
          "type": "uint256"
        },
        {
          "internalType": "uint256",
          "name": "deadline",
          "type": "uint256"
        },
        {
          "internalType": "uint8",
          "name": "v",
          "type": "uint8"
        },
        {
          "internalType": "bytes32",
          "name": "r",
          "type": "bytes32"
        },
        {
          "internalType": "bytes32",
          "name": "s",
          "type": "bytes32"
        }
      ],
      "name": "permit",
      "outputs": [],
      "stateMutability": "nonpayable",
      "type": "function"
    },
    {
      "inputs": [
        {
          "internalType": "bytes32",
          "name": "role",
          "type": "bytes32"
        },
        {
          "internalType": "address",
          "name": "account",
          "type": "address"
        }
      ],
      "name": "renounceRole",
      "outputs": [],
      "stateMutability": "nonpayable",
      "type": "function"
    },
    {
      "inputs": [
        {
          "internalType": "bytes32",
          "name": "role",
          "type": "bytes32"
        },
        {
          "internalType": "address",
          "name": "account",
          "type": "address"
        }
      ],
      "name": "revokeRole",
      "outputs": [],
      "stateMutability": "nonpayable",
      "type": "function"
    },
    {
      "inputs": [],
      "name": "snapshot",
      "outputs": [],
      "stateMutability": "nonpayable",
      "type": "function"
    },
    {
      "inputs": [
        {
          "internalType": "bytes4",
          "name": "interfaceId",
          "type": "bytes4"
        }
      ],
      "name": "supportsInterface",
      "outputs": [
        {
          "internalType": "bool",
          "name": "",
          "type": "bool"
        }
      ],
      "stateMutability": "view",
      "type": "function"
    },
    {
      "inputs": [],
      "name": "symbol",
      "outputs": [
        {
          "internalType": "string",
          "name": "",
          "type": "string"
        }
      ],
      "stateMutability": "view",
      "type": "function"
    },
    {
      "inputs": [],
      "name": "totalSupply",
      "outputs": [
        {
          "internalType": "uint256",
          "name": "",
          "type": "uint256"
        }
      ],
      "stateMutability": "view",
      "type": "function"
    },
    {
      "inputs": [
        {
          "internalType": "uint256",
          "name": "snapshotId",
          "type": "uint256"
        }
      ],
      "name": "totalSupplyAt",
      "outputs": [
        {
          "internalType": "uint256",
          "name": "",
          "type": "uint256"
        }
      ],
      "stateMutability": "view",
      "type": "function"
    },
    {
      "inputs": [
        {
          "internalType": "address",
          "name": "recipient",
          "type": "address"
        },
        {
          "internalType": "uint256",
          "name": "amount",
          "type": "uint256"
        }
      ],
      "name": "transfer",
      "outputs": [
        {
          "internalType": "bool",
          "name": "",
          "type": "bool"
        }
      ],
      "stateMutability": "nonpayable",
      "type": "function"
    },
    {
      "inputs": [
        {
          "internalType": "address",
          "name": "sender",
          "type": "address"
        },
        {
          "internalType": "address",
          "name": "recipient",
          "type": "address"
        },
        {
          "internalType": "uint256",
          "name": "amount",
          "type": "uint256"
        }
      ],
      "name": "transferFrom",
      "outputs": [
        {
          "internalType": "bool",
          "name": "",
          "type": "bool"
        }
      ],
      "stateMutability": "nonpayable",
      "type": "function"
    },
    {
      "inputs": [],
      "name": "unpause",
      "outputs": [],
      "stateMutability": "nonpayable",
      "type": "function"
    }
  ],
  "bytecode": "0x6101606040527f6e71edae12b1b97f4d1f60370fef10105fa2faae0126114a169c64845d6126c9610140908152503480156200003a57600080fd5b5060405162007a7a38038062007a7a833981810160405281019062000060919062001462565b6040518060400160405280600781526020017f4d79546f6b656e00000000000000000000000000000000000000000000000000815250806040518060400160405280600181526020017f310000000000000000000000000000000000000000000000000000000000000081525085858160039080519060200190620000e7929190620011da565b50806004908051906020019062000100929190620011da565b5050506000600b60006101000a81548160ff02191690831515021790555060008280519060200120905060008280519060200120905060007f8b73c3c69bb8fe3d512ecc4cf759cc79239f7b179b0ffacaa9a75d522b39400f90508260e081815250508161010081815250504660a08181525050620001878184846200029760201b60201c565b608081815250503073ffffffffffffffffffffffffffffffffffffffff1660c08173ffffffffffffffffffffffffffffffffffffffff1681525050806101208181525050505050505050620001e66000801b33620002d360201b60201c565b620002187f5fdbd35e8da83ee755d5e62a539e5ed7f47126abede0b8b10f9ea43dc6eed07f33620002d360201b60201c565b6200024a7f65d7a28e3265b37a6474929f336521b332c1681b933f6cb9f3376673440d862a33620002d360201b60201c565b6200027c7f9f2df0fed2c77648de5860a4cc508cd0818c85b8b8a1ab4ceeef8d981c8956a633620002d360201b60201c565b6200028e33826200031b60201b60201c565b50505062001a2c565b60008383834630604051602001620002b49594939291906200156d565b6040516020818303038152906040528051906020012090509392505050565b620002ea82826200033660201b62001c571760201c565b6200031681600a60008581526020019081526020016000206200042860201b62001d381790919060201c565b505050565b6200033282826200046060201b62001d681760201c565b5050565b6200034882826200051e60201b60201c565b620004245760016009600084815260200190815260200160002060000160008373ffffffffffffffffffffffffffffffffffffffff1673ffffffffffffffffffffffffffffffffffffffff16815260200190815260200160002060006101000a81548160ff021916908315150217905550620003c96200058960201b60201c565b73ffffffffffffffffffffffffffffffffffffffff168173ffffffffffffffffffffffffffffffffffffffff16837f2f8788117e7eff1d82e926ec794901d17c78024a50270940304540a733656f0d60405160405180910390a45b5050565b600062000458836000018373ffffffffffffffffffffffffffffffffffffffff1660001b6200059160201b60201c565b905092915050565b6200047782826200060b60201b62001df51760201c565b620004876200078460201b60201c565b7bffffffffffffffffffffffffffffffffffffffffffffffffffffffff16620004b5620007a860201b60201c565b1115620004f9576040517f08c379a0000000000000000000000000000000000000000000000000000000008152600401620004f09062001651565b60405180910390fd5b62000518600f620007b260201b62001f551783620007ca60201b60201c565b50505050565b60006009600084815260200190815260200160002060000160008373ffffffffffffffffffffffffffffffffffffffff1673ffffffffffffffffffffffffffffffffffffffff16815260200190815260200160002060009054906101000a900460ff16905092915050565b600033905090565b6000620005a5838362000a7b60201b60201c565b6200060057826000018290806001815401808255809150506001900390600052602060002001600090919091909150558260000180549050836001016000848152602001908152602001600020819055506001905062000605565b600090505b92915050565b600073ffffffffffffffffffffffffffffffffffffffff168273ffffffffffffffffffffffffffffffffffffffff1614156200067e576040517f08c379a00000000000000000000000000000000000000000000000000000000081526004016200067590620016c3565b60405180910390fd5b620006926000838362000a9e60201b60201c565b8060026000828254620006a6919062001714565b92505081905550806000808473ffffffffffffffffffffffffffffffffffffffff1673ffffffffffffffffffffffffffffffffffffffff1681526020019081526020016000206000828254620006fd919062001714565b925050819055508173ffffffffffffffffffffffffffffffffffffffff16600073ffffffffffffffffffffffffffffffffffffffff167fddf252ad1be2c89b69c2b068fc378daa952ba7f163c4a11628f55a4df523b3ef8360405162000764919062001771565b60405180910390a3620007806000838362000b0e60201b60201c565b5050565b60007bffffffffffffffffffffffffffffffffffffffffffffffffffffffff905090565b6000600254905090565b60008183620007c2919062001714565b905092915050565b600080600085805490509050600081146200083f5785600182620007ef91906200178e565b81548110620008035762000802620017c9565b5b9060005260206000200160000160049054906101000a90047bffffffffffffffffffffffffffffffffffffffffffffffffffffffff1662000842565b60005b7bffffffffffffffffffffffffffffffffffffffffffffffffffffffff1692506200086e83858760201c565b9150600081118015620008c7575043866001836200088d91906200178e565b81548110620008a157620008a0620017c9565b5b9060005260206000200160000160009054906101000a900463ffffffff1663ffffffff16145b156200096857620008e38262000b2b60201b62001f6b1760201c565b86600183620008f391906200178e565b81548110620009075762000906620017c9565b5b9060005260206000200160000160046101000a8154817bffffffffffffffffffffffffffffffffffffffffffffffffffffffff02191690837bffffffffffffffffffffffffffffffffffffffffffffffffffffffff16021790555062000a72565b8560405180604001604052806200098a4362000b9960201b62001fd61760201c565b63ffffffff168152602001620009ab8562000b2b60201b62001f6b1760201c565b7bffffffffffffffffffffffffffffffffffffffffffffffffffffffff168152509080600181540180825580915050600190039060005260206000200160009091909190915060008201518160000160006101000a81548163ffffffff021916908363ffffffff16021790555060208201518160000160046101000a8154817bffffffffffffffffffffffffffffffffffffffffffffffffffffffff02191690837bffffffffffffffffffffffffffffffffffffffffffffffffffffffff16021790555050505b50935093915050565b600080836001016000848152602001908152602001600020541415905092915050565b62000aae62000bef60201b60201c565b1562000af1576040517f08c379a000000000000000000000000000000000000000000000000000000000815260040162000ae89062001848565b60405180910390fd5b62000b0983838362000c0660201b620020291760201c565b505050565b62000b2683838362000d0160201b620020e31760201c565b505050565b60007bffffffffffffffffffffffffffffffffffffffffffffffffffffffff801682111562000b91576040517f08c379a000000000000000000000000000000000000000000000000000000000815260040162000b8890620018e0565b60405180910390fd5b819050919050565b600063ffffffff801682111562000be7576040517f08c379a000000000000000000000000000000000000000000000000000000000815260040162000bde9062001978565b60405180910390fd5b819050919050565b6000600b60009054906101000a900460ff16905090565b62000c1e83838362000d5160201b6200210e1760201c565b600073ffffffffffffffffffffffffffffffffffffffff168373ffffffffffffffffffffffffffffffffffffffff16141562000c7b5762000c658262000d5660201b60201c565b62000c7562000db960201b60201c565b62000cfc565b600073ffffffffffffffffffffffffffffffffffffffff168273ffffffffffffffffffffffffffffffffffffffff16141562000cd85762000cc28362000d5660201b60201c565b62000cd262000db960201b60201c565b62000cfb565b62000ce98362000d5660201b60201c565b62000cfa8262000d5660201b60201c565b5b5b505050565b62000d1983838362000ddd60201b620021131760201c565b62000d4c62000d2e8462000de260201b60201c565b62000d3f8462000de260201b60201c565b8362000e4b60201b60201c565b505050565b505050565b62000db6600560008373ffffffffffffffffffffffffffffffffffffffff1673ffffffffffffffffffffffffffffffffffffffff16815260200190815260200160002062000daa836200106e60201b60201c565b620010b660201b60201c565b50565b62000ddb600662000dcf620007a860201b60201c565b620010b660201b60201c565b565b505050565b6000600d60008373ffffffffffffffffffffffffffffffffffffffff1673ffffffffffffffffffffffffffffffffffffffff16815260200190815260200160002060009054906101000a900473ffffffffffffffffffffffffffffffffffffffff169050919050565b8173ffffffffffffffffffffffffffffffffffffffff168373ffffffffffffffffffffffffffffffffffffffff161415801562000e885750600081115b156200106957600073ffffffffffffffffffffffffffffffffffffffff168373ffffffffffffffffffffffffffffffffffffffff161462000f7b5760008062000f22600e60008773ffffffffffffffffffffffffffffffffffffffff1673ffffffffffffffffffffffffffffffffffffffff1681526020019081526020016000206200114260201b620021181785620007ca60201b60201c565b915091508473ffffffffffffffffffffffffffffffffffffffff167fdec2bacdd2f05b59de34da9b523dff8be42e5e38e818c82fdb0bae774387a724838360405162000f709291906200199a565b60405180910390a250505b600073ffffffffffffffffffffffffffffffffffffffff168273ffffffffffffffffffffffffffffffffffffffff161462001068576000806200100f600e60008673ffffffffffffffffffffffffffffffffffffffff1673ffffffffffffffffffffffffffffffffffffffff168152602001908152602001600020620007b260201b62001f551785620007ca60201b60201c565b915091508373ffffffffffffffffffffffffffffffffffffffff167fdec2bacdd2f05b59de34da9b523dff8be42e5e38e818c82fdb0bae774387a72483836040516200105d9291906200199a565b60405180910390a250505b5b505050565b60008060008373ffffffffffffffffffffffffffffffffffffffff1673ffffffffffffffffffffffffffffffffffffffff168152602001908152602001600020549050919050565b6000620010c86200115a60201b60201c565b905080620010df846000016200117860201b60201c565b10156200113d5782600001819080600181540180825580915050600190039060005260206000200160009091909190915055826001018290806001815401808255809150506001900390600052602060002001600090919091909150555b505050565b600081836200115291906200178e565b905092915050565b6000620011736008620011cc60201b6200212e1760201c565b905090565b60008082805490501415620011915760009050620011c7565b8160018380549050620011a591906200178e565b81548110620011b957620011b8620017c9565b5b906000526020600020015490505b919050565b600081600001549050919050565b828054620011e890620019f6565b90600052602060002090601f0160209004810192826200120c576000855562001258565b82601f106200122757805160ff191683800117855562001258565b8280016001018555821562001258579182015b82811115620012575782518255916020019190600101906200123a565b5b5090506200126791906200126b565b5090565b5b80821115620012865760008160009055506001016200126c565b5090565b6000604051905090565b600080fd5b600080fd5b600080fd5b600080fd5b6000601f19601f8301169050919050565b7f4e487b7100000000000000000000000000000000000000000000000000000000600052604160045260246000fd5b620012f382620012a8565b810181811067ffffffffffffffff82111715620013155762001314620012b9565b5b80604052505050565b60006200132a6200128a565b9050620013388282620012e8565b919050565b600067ffffffffffffffff8211156200135b576200135a620012b9565b5b6200136682620012a8565b9050602081019050919050565b60005b838110156200139357808201518184015260208101905062001376565b83811115620013a3576000848401525b50505050565b6000620013c0620013ba846200133d565b6200131e565b905082815260208101848484011115620013df57620013de620012a3565b5b620013ec84828562001373565b509392505050565b600082601f8301126200140c576200140b6200129e565b5b81516200141e848260208601620013a9565b91505092915050565b6000819050919050565b6200143c8162001427565b81146200144857600080fd5b50565b6000815190506200145c8162001431565b92915050565b6000806000606084860312156200147e576200147d62001294565b5b600084015167ffffffffffffffff8111156200149f576200149e62001299565b5b620014ad86828701620013f4565b935050602084015167ffffffffffffffff811115620014d157620014d062001299565b5b620014df86828701620013f4565b9250506040620014f2868287016200144b565b9150509250925092565b6000819050919050565b6200151181620014fc565b82525050565b620015228162001427565b82525050565b600073ffffffffffffffffffffffffffffffffffffffff82169050919050565b6000620015558262001528565b9050919050565b620015678162001548565b82525050565b600060a08201905062001584600083018862001506565b62001593602083018762001506565b620015a2604083018662001506565b620015b1606083018562001517565b620015c060808301846200155c565b9695505050505050565b600082825260208201905092915050565b7f4552433230566f7465733a20746f74616c20737570706c79207269736b73206f60008201527f766572666c6f77696e6720766f74657300000000000000000000000000000000602082015250565b600062001639603083620015ca565b91506200164682620015db565b604082019050919050565b600060208201905081810360008301526200166c816200162a565b9050919050565b7f45524332303a206d696e7420746f20746865207a65726f206164647265737300600082015250565b6000620016ab601f83620015ca565b9150620016b88262001673565b602082019050919050565b60006020820190508181036000830152620016de816200169c565b9050919050565b7f4e487b7100000000000000000000000000000000000000000000000000000000600052601160045260246000fd5b6000620017218262001427565b91506200172e8362001427565b9250827fffffffffffffffffffffffffffffffffffffffffffffffffffffffffffffffff03821115620017665762001765620016e5565b5b828201905092915050565b600060208201905062001788600083018462001517565b92915050565b60006200179b8262001427565b9150620017a88362001427565b925082821015620017be57620017bd620016e5565b5b828203905092915050565b7f4e487b7100000000000000000000000000000000000000000000000000000000600052603260045260246000fd5b7f5061757361626c653a2070617573656400000000000000000000000000000000600082015250565b600062001830601083620015ca565b91506200183d82620017f8565b602082019050919050565b60006020820190508181036000830152620018638162001821565b9050919050565b7f53616665436173743a2076616c756520646f65736e27742066697420696e203260008201527f3234206269747300000000000000000000000000000000000000000000000000602082015250565b6000620018c8602783620015ca565b9150620018d5826200186a565b604082019050919050565b60006020820190508181036000830152620018fb81620018b9565b9050919050565b7f53616665436173743a2076616c756520646f65736e27742066697420696e203360008201527f3220626974730000000000000000000000000000000000000000000000000000602082015250565b600062001960602683620015ca565b91506200196d8262001902565b604082019050919050565b60006020820190508181036000830152620019938162001951565b9050919050565b6000604082019050620019b1600083018562001517565b620019c0602083018462001517565b9392505050565b7f4e487b7100000000000000000000000000000000000000000000000000000000600052602260045260246000fd5b6000600282049050600182168062001a0f57607f821691505b6020821081141562001a265762001a25620019c7565b5b50919050565b60805160a05160c05160e051610100516101205161014051615ff362001a8760003960006118da01526000612789015260006127cb015260006127aa015260006126df015260006127350152600061275e0152615ff36000f3fe608060405234801561001057600080fd5b50600436106102955760003560e01c806370a0823111610167578063a217fddf116100ce578063d539139311610087578063d539139314610896578063d547741f146108b4578063d9d98ce4146108d0578063dd62ed3e14610900578063e63ab1e914610930578063f1127ed81461094e57610295565b8063a217fddf146107b0578063a457c2d7146107ce578063a9059cbb146107fe578063c3cda5201461082e578063ca15c8731461084a578063d505accf1461087a57610295565b80639010d07c116101205780639010d07c146106c857806391d14854146106f857806395d89b41146107285780639711715a14610746578063981b24d0146107505780639ab24eb01461078057610295565b806370a08231146105f457806379cc6790146106245780637ecebe00146106405780638456cb5914610670578063893d20e81461067a5780638e539e8c1461069857610295565b80633a46b1a81161020b5780635c19a95c116101c45780635c19a95c1461050c5780635c975abb146105285780635cffe9de14610546578063613255ab146105765780636fcfff45146105a65780637028e2cd146105d657610295565b80633a46b1a81461043a5780633f4ba83a1461046a57806340c10f191461047457806342966c68146104905780634ee2cd7e146104ac578063587cde1e146104dc57610295565b8063248a9ca31161025d578063248a9ca3146103665780632f2ff15d14610396578063313ce567146103b25780633644e515146103d057806336568abe146103ee578063395093511461040a57610295565b806301ffc9a71461029a57806306fdde03146102ca578063095ea7b3146102e857806318160ddd1461031857806323b872dd14610336575b600080fd5b6102b460048036038101906102af91906140a0565b61097e565b6040516102c191906140e8565b60405180910390f35b6102d26109f8565b6040516102df919061419c565b60405180910390f35b61030260048036038101906102fd9190614252565b610a8a565b60405161030f91906140e8565b60405180910390f35b610320610aa8565b60405161032d91906142a1565b60405180910390f35b610350600480360381019061034b91906142bc565b610ab2565b60405161035d91906140e8565b60405180910390f35b610380600480360381019061037b9190614345565b610baa565b60405161038d9190614381565b60405180910390f35b6103b060048036038101906103ab919061439c565b610bca565b005b6103ba610bf3565b6040516103c791906143f8565b60405180910390f35b6103d8610bfc565b6040516103e59190614381565b60405180910390f35b6104086004803603810190610403919061439c565b610c0b565b005b610424600480360381019061041f9190614252565b610c8e565b60405161043191906140e8565b60405180910390f35b610454600480360381019061044f9190614252565b610d3a565b60405161046191906142a1565b60405180910390f35b610472610dce565b005b61048e60048036038101906104899190614252565b610e0b565b005b6104aa60048036038101906104a59190614413565b610e4c565b005b6104c660048036038101906104c19190614252565b610e60565b6040516104d391906142a1565b60405180910390f35b6104f660048036038101906104f19190614440565b610ed0565b604051610503919061447c565b60405180910390f35b61052660048036038101906105219190614440565b610f39565b005b610530610f4d565b60405161053d91906140e8565b60405180910390f35b610560600480360381019061055b919061453a565b610f64565b60405161056d91906140e8565b60405180910390f35b610590600480360381019061058b9190614440565b611105565b60405161059d91906142a1565b60405180910390f35b6105c060048036038101906105bb9190614440565b61117c565b6040516105cd91906145e1565b60405180910390f35b6105de6111d0565b6040516105eb9190614381565b60405180910390f35b61060e60048036038101906106099190614440565b6111f4565b60405161061b91906142a1565b60405180910390f35b61063e60048036038101906106399190614252565b61123c565b005b61065a60048036038101906106559190614440565b6112b7565b60405161066791906142a1565b60405180910390f35b610678611307565b005b610682611344565b60405161068f919061447c565b60405180910390f35b6106b260048036038101906106ad9190614413565b611359565b6040516106bf91906142a1565b60405180910390f35b6106e260048036038101906106dd91906145fc565b6113af565b6040516106ef919061447c565b60405180910390f35b610712600480360381019061070d919061439c565b6113de565b60405161071f91906140e8565b60405180910390f35b610730611449565b60405161073d919061419c565b60405180910390f35b61074e6114db565b005b61076a60048036038101906107659190614413565b611519565b60405161077791906142a1565b60405180910390f35b61079a60048036038101906107959190614440565b61154a565b6040516107a791906142a1565b60405180910390f35b6107b861165b565b6040516107c59190614381565b60405180910390f35b6107e860048036038101906107e39190614252565b611662565b6040516107f591906140e8565b60405180910390f35b61081860048036038101906108139190614252565b61174d565b60405161082591906140e8565b60405180910390f35b61084860048036038101906108439190614668565b61176b565b005b610864600480360381019061085f9190614345565b61186f565b60405161087191906142a1565b60405180910390f35b610894600480360381019061088f91906146f5565b611893565b005b61089e6119d5565b6040516108ab9190614381565b60405180910390f35b6108ce60048036038101906108c9919061439c565b6119f9565b005b6108ea60048036038101906108e59190614252565b611a22565b6040516108f791906142a1565b60405180910390f35b61091a60048036038101906109159190614797565b611a9c565b60405161092791906142a1565b60405180910390f35b610938611b23565b6040516109459190614381565b60405180910390f35b61096860048036038101906109639190614803565b611b47565b60405161097591906148b8565b60405180910390f35b60007f5a05180f000000000000000000000000000000000000000000000000000000007bffffffffffffffffffffffffffffffffffffffffffffffffffffffff1916827bffffffffffffffffffffffffffffffffffffffffffffffffffffffff191614806109f157506109f08261213c565b5b9050919050565b606060038054610a0790614902565b80601f0160208091040260200160405190810160405280929190818152602001828054610a3390614902565b8015610a805780601f10610a5557610100808354040283529160200191610a80565b820191906000526020600020905b815481529060010190602001808311610a6357829003601f168201915b5050505050905090565b6000610a9e610a976121b6565b84846121be565b6001905092915050565b6000600254905090565b6000610abf848484612389565b6000600160008673ffffffffffffffffffffffffffffffffffffffff1673ffffffffffffffffffffffffffffffffffffffff1681526020019081526020016000206000610b0a6121b6565b73ffffffffffffffffffffffffffffffffffffffff1673ffffffffffffffffffffffffffffffffffffffff16815260200190815260200160002054905082811015610b8a576040517f08c379a0000000000000000000000000000000000000000000000000000000008152600401610b81906149a6565b60405180910390fd5b610b9e85610b966121b6565b8584036121be565b60019150509392505050565b600060096000838152602001908152602001600020600101549050919050565b610bd382610baa565b610be481610bdf6121b6565b61260a565b610bee83836126a7565b505050565b60006012905090565b6000610c066126db565b905090565b610c136121b6565b73ffffffffffffffffffffffffffffffffffffffff168173ffffffffffffffffffffffffffffffffffffffff1614610c80576040517f08c379a0000000000000000000000000000000000000000000000000000000008152600401610c7790614a38565b60405180910390fd5b610c8a82826127f5565b5050565b6000610d30610c9b6121b6565b848460016000610ca96121b6565b73ffffffffffffffffffffffffffffffffffffffff1673ffffffffffffffffffffffffffffffffffffffff16815260200190815260200160002060008873ffffffffffffffffffffffffffffffffffffffff1673ffffffffffffffffffffffffffffffffffffffff16815260200190815260200160002054610d2b9190614a87565b6121be565b6001905092915050565b6000438210610d7e576040517f08c379a0000000000000000000000000000000000000000000000000000000008152600401610d7590614b29565b60405180910390fd5b610dc6600e60008573ffffffffffffffffffffffffffffffffffffffff1673ffffffffffffffffffffffffffffffffffffffff16815260200190815260200160002083612829565b905092915050565b7f65d7a28e3265b37a6474929f336521b332c1681b933f6cb9f3376673440d862a610e0081610dfb6121b6565b61260a565b610e08612935565b50565b7f9f2df0fed2c77648de5860a4cc508cd0818c85b8b8a1ab4ceeef8d981c8956a6610e3d81610e386121b6565b61260a565b610e4783836129d7565b505050565b610e5d610e576121b6565b826129e5565b50565b6000806000610ead84600560008873ffffffffffffffffffffffffffffffffffffffff1673ffffffffffffffffffffffffffffffffffffffff1681526020019081526020016000206129f3565b9150915081610ec457610ebf856111f4565b610ec6565b805b9250505092915050565b6000600d60008373ffffffffffffffffffffffffffffffffffffffff1673ffffffffffffffffffffffffffffffffffffffff16815260200190815260200160002060009054906101000a900473ffffffffffffffffffffffffffffffffffffffff169050919050565b610f4a610f446121b6565b82612ae9565b50565b6000600b60009054906101000a900460ff16905090565b600080610f718686611a22565b9050610f7d87866129d7565b7f439148f0bbc682ca079e46d6e2c2f0c1e3b820f1a291b069d8882abf8cf18dd98773ffffffffffffffffffffffffffffffffffffffff166323e30c8b338989868a8a6040518763ffffffff1660e01b8152600401610fe196959493929190614b96565b6020604051808303816000875af1158015611000573d6000803e3d6000fd5b505050506040513d601f19601f820116820180604052508101906110249190614c07565b14611064576040517f08c379a000000000000000000000000000000000000000000000000000000000815260040161105b90614ca6565b60405180910390fd5b60006110708830611a9c565b9050818661107e9190614a87565b8110156110c0576040517f08c379a00000000000000000000000000000000000000000000000000000000081526004016110b790614d38565b60405180910390fd5b6110e188308489856110d29190614d58565b6110dc9190614d58565b6121be565b6110f68883886110f19190614a87565b6129e5565b60019250505095945050505050565b60003073ffffffffffffffffffffffffffffffffffffffff168273ffffffffffffffffffffffffffffffffffffffff1614611141576000611175565b611149610aa8565b7fffffffffffffffffffffffffffffffffffffffffffffffffffffffffffffffff6111749190614d58565b5b9050919050565b60006111c9600e60008473ffffffffffffffffffffffffffffffffffffffff1673ffffffffffffffffffffffffffffffffffffffff16815260200190815260200160002080549050611fd6565b9050919050565b7f5fdbd35e8da83ee755d5e62a539e5ed7f47126abede0b8b10f9ea43dc6eed07f81565b60008060008373ffffffffffffffffffffffffffffffffffffffff1673ffffffffffffffffffffffffffffffffffffffff168152602001908152602001600020549050919050565b600061124f8361124a6121b6565b611a9c565b905081811015611294576040517f08c379a000000000000000000000000000000000000000000000000000000000815260040161128b90614dfe565b60405180910390fd5b6112a8836112a06121b6565b8484036121be565b6112b283836129e5565b505050565b6000611300600c60008473ffffffffffffffffffffffffffffffffffffffff1673ffffffffffffffffffffffffffffffffffffffff16815260200190815260200160002061212e565b9050919050565b7f65d7a28e3265b37a6474929f336521b332c1681b933f6cb9f3376673440d862a611339816113346121b6565b61260a565b611341612c03565b50565b60006113546000801b60006113af565b905090565b600043821061139d576040517f08c379a000000000000000000000000000000000000000000000000000000000815260040161139490614b29565b60405180910390fd5b6113a8600f83612829565b9050919050565b60006113d682600a6000868152602001908152602001600020612ca690919063ffffffff16565b905092915050565b60006009600084815260200190815260200160002060000160008373ffffffffffffffffffffffffffffffffffffffff1673ffffffffffffffffffffffffffffffffffffffff16815260200190815260200160002060009054906101000a900460ff16905092915050565b60606004805461145890614902565b80601f016020809104026020016040519081016040528092919081815260200182805461148490614902565b80156114d15780601f106114a6576101008083540402835291602001916114d1565b820191906000526020600020905b8154815290600101906020018083116114b457829003601f168201915b5050505050905090565b7f5fdbd35e8da83ee755d5e62a539e5ed7f47126abede0b8b10f9ea43dc6eed07f61150d816115086121b6565b61260a565b611515612cc0565b5050565b60008060006115298460066129f3565b915091508161153f5761153a610aa8565b611541565b805b92505050919050565b600080600e60008473ffffffffffffffffffffffffffffffffffffffff1673ffffffffffffffffffffffffffffffffffffffff1681526020019081526020016000208054905090506000811461163257600e60008473ffffffffffffffffffffffffffffffffffffffff1673ffffffffffffffffffffffffffffffffffffffff1681526020019081526020016000206001826115e69190614d58565b815481106115f7576115f6614e1e565b5b9060005260206000200160000160049054906101000a90047bffffffffffffffffffffffffffffffffffffffffffffffffffffffff16611635565b60005b7bffffffffffffffffffffffffffffffffffffffffffffffffffffffff16915050919050565b6000801b81565b600080600160006116716121b6565b73ffffffffffffffffffffffffffffffffffffffff1673ffffffffffffffffffffffffffffffffffffffff16815260200190815260200160002060008573ffffffffffffffffffffffffffffffffffffffff1673ffffffffffffffffffffffffffffffffffffffff1681526020019081526020016000205490508281101561172e576040517f08c379a000000000000000000000000000000000000000000000000000000000815260040161172590614ebf565b60405180910390fd5b6117426117396121b6565b858584036121be565b600191505092915050565b600061176161175a6121b6565b8484612389565b6001905092915050565b834211156117ae576040517f08c379a00000000000000000000000000000000000000000000000000000000081526004016117a590614f2b565b60405180910390fd5b60006118106118087fe48329057bfd03d55e49b547132e39cffd9c1820ad7b9d4c5307691425d15adf8989896040516020016117ed9493929190614f4b565b60405160208183030381529060405280519060200120612d16565b858585612d30565b905061181b81612d5b565b861461185c576040517f08c379a000000000000000000000000000000000000000000000000000000000815260040161185390614fdc565b60405180910390fd5b6118668188612ae9565b50505050505050565b600061188c600a6000848152602001908152602001600020612db9565b9050919050565b834211156118d6576040517f08c379a00000000000000000000000000000000000000000000000000000000081526004016118cd90615048565b60405180910390fd5b60007f00000000000000000000000000000000000000000000000000000000000000008888886119058c612d5b565b8960405160200161191b96959493929190615068565b604051602081830303815290604052805190602001209050600061193e82612d16565b9050600061194e82878787612d30565b90508973ffffffffffffffffffffffffffffffffffffffff168173ffffffffffffffffffffffffffffffffffffffff16146119be576040517f08c379a00000000000000000000000000000000000000000000000000000000081526004016119b590615115565b60405180910390fd5b6119c98a8a8a6121be565b50505050505050505050565b7f9f2df0fed2c77648de5860a4cc508cd0818c85b8b8a1ab4ceeef8d981c8956a681565b611a0282610baa565b611a1381611a0e6121b6565b61260a565b611a1d83836127f5565b505050565b60003073ffffffffffffffffffffffffffffffffffffffff168373ffffffffffffffffffffffffffffffffffffffff1614611a92576040517f08c379a0000000000000000000000000000000000000000000000000000000008152600401611a8990615181565b60405180910390fd5b6000905092915050565b6000600160008473ffffffffffffffffffffffffffffffffffffffff1673ffffffffffffffffffffffffffffffffffffffff16815260200190815260200160002060008373ffffffffffffffffffffffffffffffffffffffff1673ffffffffffffffffffffffffffffffffffffffff16815260200190815260200160002054905092915050565b7f65d7a28e3265b37a6474929f336521b332c1681b933f6cb9f3376673440d862a81565b611b4f614000565b600e60008473ffffffffffffffffffffffffffffffffffffffff1673ffffffffffffffffffffffffffffffffffffffff1681526020019081526020016000208263ffffffff1681548110611ba657611ba5614e1e565b5b906000526020600020016040518060400160405290816000820160009054906101000a900463ffffffff1663ffffffff1663ffffffff1681526020016000820160049054906101000a90047bffffffffffffffffffffffffffffffffffffffffffffffffffffffff167bffffffffffffffffffffffffffffffffffffffffffffffffffffffff167bffffffffffffffffffffffffffffffffffffffffffffffffffffffff1681525050905092915050565b611c6182826113de565b611d345760016009600084815260200190815260200160002060000160008373ffffffffffffffffffffffffffffffffffffffff1673ffffffffffffffffffffffffffffffffffffffff16815260200190815260200160002060006101000a81548160ff021916908315150217905550611cd96121b6565b73ffffffffffffffffffffffffffffffffffffffff168173ffffffffffffffffffffffffffffffffffffffff16837f2f8788117e7eff1d82e926ec794901d17c78024a50270940304540a733656f0d60405160405180910390a45b5050565b6000611d60836000018373ffffffffffffffffffffffffffffffffffffffff1660001b612dce565b905092915050565b611d728282611df5565b611d7a612e3e565b7bffffffffffffffffffffffffffffffffffffffffffffffffffffffff16611da0610aa8565b1115611de1576040517f08c379a0000000000000000000000000000000000000000000000000000000008152600401611dd890615213565b60405180910390fd5b611def600f611f5583612e62565b50505050565b600073ffffffffffffffffffffffffffffffffffffffff168273ffffffffffffffffffffffffffffffffffffffff161415611e65576040517f08c379a0000000000000000000000000000000000000000000000000000000008152600401611e5c9061527f565b60405180910390fd5b611e71600083836130da565b8060026000828254611e839190614a87565b92505081905550806000808473ffffffffffffffffffffffffffffffffffffffff1673ffffffffffffffffffffffffffffffffffffffff1681526020019081526020016000206000828254611ed89190614a87565b925050819055508173ffffffffffffffffffffffffffffffffffffffff16600073ffffffffffffffffffffffffffffffffffffffff167fddf252ad1be2c89b69c2b068fc378daa952ba7f163c4a11628f55a4df523b3ef83604051611f3d91906142a1565b60405180910390a3611f5160008383613132565b5050565b60008183611f639190614a87565b905092915050565b60007bffffffffffffffffffffffffffffffffffffffffffffffffffffffff8016821115611fce576040517f08c379a0000000000000000000000000000000000000000000000000000000008152600401611fc590615311565b60405180910390fd5b819050919050565b600063ffffffff8016821115612021576040517f08c379a0000000000000000000000000000000000000000000000000000000008152600401612018906153a3565b60405180910390fd5b819050919050565b61203483838361210e565b600073ffffffffffffffffffffffffffffffffffffffff168373ffffffffffffffffffffffffffffffffffffffff16141561207f5761207282613142565b61207a613195565b6120de565b600073ffffffffffffffffffffffffffffffffffffffff168273ffffffffffffffffffffffffffffffffffffffff1614156120ca576120bd83613142565b6120c5613195565b6120dd565b6120d383613142565b6120dc82613142565b5b5b505050565b6120ee838383612113565b6121096120fa84610ed0565b61210384610ed0565b836131a9565b505050565b505050565b505050565b600081836121269190614d58565b905092915050565b600081600001549050919050565b60007f7965db0b000000000000000000000000000000000000000000000000000000007bffffffffffffffffffffffffffffffffffffffffffffffffffffffff1916827bffffffffffffffffffffffffffffffffffffffffffffffffffffffff191614806121af57506121ae826133a2565b5b9050919050565b600033905090565b600073ffffffffffffffffffffffffffffffffffffffff168373ffffffffffffffffffffffffffffffffffffffff16141561222e576040517f08c379a000000000000000000000000000000000000000000000000000000000815260040161222590615435565b60405180910390fd5b600073ffffffffffffffffffffffffffffffffffffffff168273ffffffffffffffffffffffffffffffffffffffff16141561229e576040517f08c379a0000000000000000000000000000000000000000000000000000000008152600401612295906154c7565b60405180910390fd5b80600160008573ffffffffffffffffffffffffffffffffffffffff1673ffffffffffffffffffffffffffffffffffffffff16815260200190815260200160002060008473ffffffffffffffffffffffffffffffffffffffff1673ffffffffffffffffffffffffffffffffffffffff168152602001908152602001600020819055508173ffffffffffffffffffffffffffffffffffffffff168373ffffffffffffffffffffffffffffffffffffffff167f8c5be1e5ebec7d5bd14f71427d1e84f3dd0314c0f7b2291e5b200ac8c7c3b9258360405161237c91906142a1565b60405180910390a3505050565b600073ffffffffffffffffffffffffffffffffffffffff168373ffffffffffffffffffffffffffffffffffffffff1614156123f9576040517f08c379a00000000000000000000000000000000000000000000000000000000081526004016123f090615559565b60405180910390fd5b600073ffffffffffffffffffffffffffffffffffffffff168273ffffffffffffffffffffffffffffffffffffffff161415612469576040517f08c379a0000000000000000000000000000000000000000000000000000000008152600401612460906155eb565b60405180910390fd5b6124748383836130da565b60008060008573ffffffffffffffffffffffffffffffffffffffff1673ffffffffffffffffffffffffffffffffffffffff168152602001908152602001600020549050818110156124fa576040517f08c379a00000000000000000000000000000000000000000000000000000000081526004016124f19061567d565b60405180910390fd5b8181036000808673ffffffffffffffffffffffffffffffffffffffff1673ffffffffffffffffffffffffffffffffffffffff16815260200190815260200160002081905550816000808573ffffffffffffffffffffffffffffffffffffffff1673ffffffffffffffffffffffffffffffffffffffff168152602001908152602001600020600082825461258d9190614a87565b925050819055508273ffffffffffffffffffffffffffffffffffffffff168473ffffffffffffffffffffffffffffffffffffffff167fddf252ad1be2c89b69c2b068fc378daa952ba7f163c4a11628f55a4df523b3ef846040516125f191906142a1565b60405180910390a3612604848484613132565b50505050565b61261482826113de565b6126a3576126398173ffffffffffffffffffffffffffffffffffffffff16601461340c565b6126478360001c602061340c565b604051602001612658929190615771565b6040516020818303038152906040526040517f08c379a000000000000000000000000000000000000000000000000000000000815260040161269a919061419c565b60405180910390fd5b5050565b6126b18282611c57565b6126d681600a6000858152602001908152602001600020611d3890919063ffffffff16565b505050565b60007f000000000000000000000000000000000000000000000000000000000000000073ffffffffffffffffffffffffffffffffffffffff163073ffffffffffffffffffffffffffffffffffffffff1614801561275757507f000000000000000000000000000000000000000000000000000000000000000046145b15612784577f000000000000000000000000000000000000000000000000000000000000000090506127f2565b6127ef7f00000000000000000000000000000000000000000000000000000000000000007f00000000000000000000000000000000000000000000000000000000000000007f0000000000000000000000000000000000000000000000000000000000000000613648565b90505b90565b6127ff8282613682565b61282481600a600085815260200190815260200160002061376490919063ffffffff16565b505050565b6000808380549050905060005b818110156128a857600061284a8284613794565b9050848682815481106128605761285f614e1e565b5b9060005260206000200160000160009054906101000a900463ffffffff1663ffffffff161115612892578092506128a2565b60018161289f9190614a87565b91505b50612836565b6000821461290a57846001836128be9190614d58565b815481106128cf576128ce614e1e565b5b9060005260206000200160000160049054906101000a90047bffffffffffffffffffffffffffffffffffffffffffffffffffffffff1661290d565b60005b7bffffffffffffffffffffffffffffffffffffffffffffffffffffffff169250505092915050565b61293d610f4d565b61297c576040517f08c379a0000000000000000000000000000000000000000000000000000000008152600401612973906157f7565b60405180910390fd5b6000600b60006101000a81548160ff0219169083151502179055507f5db9ee0a495bf2e6ff9c91a7834c1ba4fdd244a5e8aa4e537bd38aeae4b073aa6129c06121b6565b6040516129cd919061447c565b60405180910390a1565b6129e18282611d68565b5050565b6129ef82826137ba565b5050565b60008060008411612a39576040517f08c379a0000000000000000000000000000000000000000000000000000000008152600401612a3090615863565b60405180910390fd5b612a416137d8565b841115612a83576040517f08c379a0000000000000000000000000000000000000000000000000000000008152600401612a7a906158cf565b60405180910390fd5b6000612a9b85856000016137e990919063ffffffff16565b90508360000180549050811415612ab9576000809250925050612ae2565b6001846001018281548110612ad157612ad0614e1e565b5b906000526020600020015492509250505b9250929050565b6000612af483610ed0565b90506000612b01846111f4565b905082600d60008673ffffffffffffffffffffffffffffffffffffffff1673ffffffffffffffffffffffffffffffffffffffff16815260200190815260200160002060006101000a81548173ffffffffffffffffffffffffffffffffffffffff021916908373ffffffffffffffffffffffffffffffffffffffff1602179055508273ffffffffffffffffffffffffffffffffffffffff168273ffffffffffffffffffffffffffffffffffffffff168573ffffffffffffffffffffffffffffffffffffffff167f3134e8a2e6d97e929a7e54011ea5485d7d196dd5f0ba4d4ef95803e8e3fc257f60405160405180910390a4612bfd8284836131a9565b50505050565b612c0b610f4d565b15612c4b576040517f08c379a0000000000000000000000000000000000000000000000000000000008152600401612c429061593b565b60405180910390fd5b6001600b60006101000a81548160ff0219169083151502179055507f62e78cea01bee320cd4e420270b5ea74000d11b0c9f74754ebdbfc544b05a258612c8f6121b6565b604051612c9c919061447c565b60405180910390a1565b6000612cb583600001836138c3565b60001c905092915050565b6000612ccc60086138ee565b6000612cd66137d8565b90507f8030e83b04d87bef53480e26263266d6ca66863aa8506aca6f2559d18aa1cb6781604051612d0791906142a1565b60405180910390a18091505090565b6000612d29612d236126db565b83613904565b9050919050565b6000806000612d4187878787613937565b91509150612d4e81613a44565b8192505050949350505050565b600080600c60008473ffffffffffffffffffffffffffffffffffffffff1673ffffffffffffffffffffffffffffffffffffffff1681526020019081526020016000209050612da88161212e565b9150612db3816138ee565b50919050565b6000612dc782600001613c19565b9050919050565b6000612dda8383613c2a565b612e33578260000182908060018154018082558091505060019003906000526020600020016000909190919091505582600001805490508360010160008481526020019081526020016000208190555060019050612e38565b600090505b92915050565b60007bffffffffffffffffffffffffffffffffffffffffffffffffffffffff905090565b60008060008580549050905060008114612ed05785600182612e849190614d58565b81548110612e9557612e94614e1e565b5b9060005260206000200160000160049054906101000a90047bffffffffffffffffffffffffffffffffffffffffffffffffffffffff16612ed3565b60005b7bffffffffffffffffffffffffffffffffffffffffffffffffffffffff169250612f0183858763ffffffff16565b9150600081118015612f5457504386600183612f1d9190614d58565b81548110612f2e57612f2d614e1e565b5b9060005260206000200160000160009054906101000a900463ffffffff1663ffffffff16145b15612fe157612f6282611f6b565b86600183612f709190614d58565b81548110612f8157612f80614e1e565b5b9060005260206000200160000160046101000a8154817bffffffffffffffffffffffffffffffffffffffffffffffffffffffff02191690837bffffffffffffffffffffffffffffffffffffffffffffffffffffffff1602179055506130d1565b856040518060400160405280612ff643611fd6565b63ffffffff16815260200161300a85611f6b565b7bffffffffffffffffffffffffffffffffffffffffffffffffffffffff168152509080600181540180825580915050600190039060005260206000200160009091909190915060008201518160000160006101000a81548163ffffffff021916908363ffffffff16021790555060208201518160000160046101000a8154817bffffffffffffffffffffffffffffffffffffffffffffffffffffffff02191690837bffffffffffffffffffffffffffffffffffffffffffffffffffffffff16021790555050505b50935093915050565b6130e2610f4d565b15613122576040517f08c379a00000000000000000000000000000000000000000000000000000000081526004016131199061593b565b60405180910390fd5b61312d838383612029565b505050565b61313d8383836120e3565b505050565b613192600560008373ffffffffffffffffffffffffffffffffffffffff1673ffffffffffffffffffffffffffffffffffffffff16815260200190815260200160002061318d836111f4565b613c4d565b50565b6131a760066131a2610aa8565b613c4d565b565b8173ffffffffffffffffffffffffffffffffffffffff168373ffffffffffffffffffffffffffffffffffffffff16141580156131e55750600081115b1561339d57600073ffffffffffffffffffffffffffffffffffffffff168373ffffffffffffffffffffffffffffffffffffffff16146132c35760008061326c600e60008773ffffffffffffffffffffffffffffffffffffffff1673ffffffffffffffffffffffffffffffffffffffff16815260200190815260200160002061211885612e62565b915091508473ffffffffffffffffffffffffffffffffffffffff167fdec2bacdd2f05b59de34da9b523dff8be42e5e38e818c82fdb0bae774387a72483836040516132b892919061595b565b60405180910390a250505b600073ffffffffffffffffffffffffffffffffffffffff168273ffffffffffffffffffffffffffffffffffffffff161461339c57600080613345600e60008673ffffffffffffffffffffffffffffffffffffffff1673ffffffffffffffffffffffffffffffffffffffff168152602001908152602001600020611f5585612e62565b915091508373ffffffffffffffffffffffffffffffffffffffff167fdec2bacdd2f05b59de34da9b523dff8be42e5e38e818c82fdb0bae774387a724838360405161339192919061595b565b60405180910390a250505b5b505050565b60007f01ffc9a7000000000000000000000000000000000000000000000000000000007bffffffffffffffffffffffffffffffffffffffffffffffffffffffff1916827bffffffffffffffffffffffffffffffffffffffffffffffffffffffff1916149050919050565b60606000600283600261341f9190615984565b6134299190614a87565b67ffffffffffffffff811115613442576134416159de565b5b6040519080825280601f01601f1916602001820160405280156134745781602001600182028036833780820191505090505b5090507f3000000000000000000000000000000000000000000000000000000000000000816000815181106134ac576134ab614e1e565b5b60200101907effffffffffffffffffffffffffffffffffffffffffffffffffffffffffffff1916908160001a9053507f7800000000000000000000000000000000000000000000000000000000000000816001815181106135105761350f614e1e565b5b60200101907effffffffffffffffffffffffffffffffffffffffffffffffffffffffffffff1916908160001a905350600060018460026135509190615984565b61355a9190614a87565b90505b60018111156135fa577f3031323334353637383961626364656600000000000000000000000000000000600f86166010811061359c5761359b614e1e565b5b1a60f81b8282815181106135b3576135b2614e1e565b5b60200101907effffffffffffffffffffffffffffffffffffffffffffffffffffffffffffff1916908160001a905350600485901c9450806135f390615a0d565b905061355d565b506000841461363e576040517f08c379a000000000000000000000000000000000000000000000000000000000815260040161363590615a83565b60405180910390fd5b8091505092915050565b60008383834630604051602001613663959493929190615aa3565b6040516020818303038152906040528051906020012090509392505050565b61368c82826113de565b156137605760006009600084815260200190815260200160002060000160008373ffffffffffffffffffffffffffffffffffffffff1673ffffffffffffffffffffffffffffffffffffffff16815260200190815260200160002060006101000a81548160ff0219169083151502179055506137056121b6565b73ffffffffffffffffffffffffffffffffffffffff168173ffffffffffffffffffffffffffffffffffffffff16837ff6391f5c32d9c69d2a47ea670b442974b53935d1edc7fd64eb21e047a839171b60405160405180910390a45b5050565b600061378c836000018373ffffffffffffffffffffffffffffffffffffffff1660001b613cc8565b905092915050565b600060028284186137a59190615b25565b8284166137b29190614a87565b905092915050565b6137c48282613ddc565b6137d2600f61211883612e62565b50505050565b60006137e4600861212e565b905090565b6000808380549050141561380057600090506138bd565b600080848054905090505b8082101561386457600061381f8383613794565b90508486828154811061383557613834614e1e565b5b9060005260206000200154111561384e5780915061385e565b60018161385b9190614a87565b92505b5061380b565b60008211801561389c5750838560018461387e9190614d58565b8154811061388f5761388e614e1e565b5b9060005260206000200154145b156138b7576001826138ae9190614d58565b925050506138bd565b81925050505b92915050565b60008260000182815481106138db576138da614e1e565b5b9060005260206000200154905092915050565b6001816000016000828254019250508190555050565b60008282604051602001613919929190615bc3565b60405160208183030381529060405280519060200120905092915050565b6000807f7fffffffffffffffffffffffffffffff5d576e7357a4501ddfe92f46681b20a08360001c1115613972576000600391509150613a3b565b601b8560ff161415801561398a5750601c8560ff1614155b1561399c576000600491509150613a3b565b6000600187878787604051600081526020016040526040516139c19493929190615bfa565b6020604051602081039080840390855afa1580156139e3573d6000803e3d6000fd5b505050602060405103519050600073ffffffffffffffffffffffffffffffffffffffff168173ffffffffffffffffffffffffffffffffffffffff161415613a3257600060019250925050613a3b565b80600092509250505b94509492505050565b60006004811115613a5857613a57615c3f565b5b816004811115613a6b57613a6a615c3f565b5b1415613a7657613c16565b60016004811115613a8a57613a89615c3f565b5b816004811115613a9d57613a9c615c3f565b5b1415613ade576040517f08c379a0000000000000000000000000000000000000000000000000000000008152600401613ad590615cba565b60405180910390fd5b60026004811115613af257613af1615c3f565b5b816004811115613b0557613b04615c3f565b5b1415613b46576040517f08c379a0000000000000000000000000000000000000000000000000000000008152600401613b3d90615d26565b60405180910390fd5b60036004811115613b5a57613b59615c3f565b5b816004811115613b6d57613b6c615c3f565b5b1415613bae576040517f08c379a0000000000000000000000000000000000000000000000000000000008152600401613ba590615db8565b60405180910390fd5b600480811115613bc157613bc0615c3f565b5b816004811115613bd457613bd3615c3f565b5b1415613c15576040517f08c379a0000000000000000000000000000000000000000000000000000000008152600401613c0c90615e4a565b60405180910390fd5b5b50565b600081600001805490509050919050565b600080836001016000848152602001908152602001600020541415905092915050565b6000613c576137d8565b905080613c6684600001613fb3565b1015613cc35782600001819080600181540180825580915050600190039060005260206000200160009091909190915055826001018290806001815401808255809150506001900390600052602060002001600090919091909150555b505050565b60008083600101600084815260200190815260200160002054905060008114613dd0576000600182613cfa9190614d58565b9050600060018660000180549050613d129190614d58565b9050818114613d81576000866000018281548110613d3357613d32614e1e565b5b9060005260206000200154905080876000018481548110613d5757613d56614e1e565b5b90600052602060002001819055508387600101600083815260200190815260200160002081905550505b85600001805480613d9557613d94615e6a565b5b600190038181906000526020600020016000905590558560010160008681526020019081526020016000206000905560019350505050613dd6565b60009150505b92915050565b600073ffffffffffffffffffffffffffffffffffffffff168273ffffffffffffffffffffffffffffffffffffffff161415613e4c576040517f08c379a0000000000000000000000000000000000000000000000000000000008152600401613e4390615f0b565b60405180910390fd5b613e58826000836130da565b60008060008473ffffffffffffffffffffffffffffffffffffffff1673ffffffffffffffffffffffffffffffffffffffff16815260200190815260200160002054905081811015613ede576040517f08c379a0000000000000000000000000000000000000000000000000000000008152600401613ed590615f9d565b60405180910390fd5b8181036000808573ffffffffffffffffffffffffffffffffffffffff1673ffffffffffffffffffffffffffffffffffffffff168152602001908152602001600020819055508160026000828254613f359190614d58565b92505081905550600073ffffffffffffffffffffffffffffffffffffffff168373ffffffffffffffffffffffffffffffffffffffff167fddf252ad1be2c89b69c2b068fc378daa952ba7f163c4a11628f55a4df523b3ef84604051613f9a91906142a1565b60405180910390a3613fae83600084613132565b505050565b60008082805490501415613fca5760009050613ffb565b8160018380549050613fdc9190614d58565b81548110613fed57613fec614e1e565b5b906000526020600020015490505b919050565b6040518060400160405280600063ffffffff16815260200160007bffffffffffffffffffffffffffffffffffffffffffffffffffffffff1681525090565b600080fd5b600080fd5b60007fffffffff0000000000000000000000000000000000000000000000000000000082169050919050565b61407d81614048565b811461408857600080fd5b50565b60008135905061409a81614074565b92915050565b6000602082840312156140b6576140b561403e565b5b60006140c48482850161408b565b91505092915050565b60008115159050919050565b6140e2816140cd565b82525050565b60006020820190506140fd60008301846140d9565b92915050565b600081519050919050565b600082825260208201905092915050565b60005b8381101561413d578082015181840152602081019050614122565b8381111561414c576000848401525b50505050565b6000601f19601f8301169050919050565b600061416e82614103565b614178818561410e565b935061418881856020860161411f565b61419181614152565b840191505092915050565b600060208201905081810360008301526141b68184614163565b905092915050565b600073ffffffffffffffffffffffffffffffffffffffff82169050919050565b60006141e9826141be565b9050919050565b6141f9816141de565b811461420457600080fd5b50565b600081359050614216816141f0565b92915050565b6000819050919050565b61422f8161421c565b811461423a57600080fd5b50565b60008135905061424c81614226565b92915050565b600080604083850312156142695761426861403e565b5b600061427785828601614207565b92505060206142888582860161423d565b9150509250929050565b61429b8161421c565b82525050565b60006020820190506142b66000830184614292565b92915050565b6000806000606084860312156142d5576142d461403e565b5b60006142e386828701614207565b93505060206142f486828701614207565b92505060406143058682870161423d565b9150509250925092565b6000819050919050565b6143228161430f565b811461432d57600080fd5b50565b60008135905061433f81614319565b92915050565b60006020828403121561435b5761435a61403e565b5b600061436984828501614330565b91505092915050565b61437b8161430f565b82525050565b60006020820190506143966000830184614372565b92915050565b600080604083850312156143b3576143b261403e565b5b60006143c185828601614330565b92505060206143d285828601614207565b9150509250929050565b600060ff82169050919050565b6143f2816143dc565b82525050565b600060208201905061440d60008301846143e9565b92915050565b6000602082840312156144295761442861403e565b5b60006144378482850161423d565b91505092915050565b6000602082840312156144565761445561403e565b5b600061446484828501614207565b91505092915050565b614476816141de565b82525050565b6000602082019050614491600083018461446d565b92915050565b60006144a2826141de565b9050919050565b6144b281614497565b81146144bd57600080fd5b50565b6000813590506144cf816144a9565b92915050565b600080fd5b600080fd5b600080fd5b60008083601f8401126144fa576144f96144d5565b5b8235905067ffffffffffffffff811115614517576145166144da565b5b602083019150836001820283011115614533576145326144df565b5b9250929050565b6000806000806000608086880312156145565761455561403e565b5b6000614564888289016144c0565b955050602061457588828901614207565b94505060406145868882890161423d565b935050606086013567ffffffffffffffff8111156145a7576145a6614043565b5b6145b3888289016144e4565b92509250509295509295909350565b600063ffffffff82169050919050565b6145db816145c2565b82525050565b60006020820190506145f660008301846145d2565b92915050565b600080604083850312156146135761461261403e565b5b600061462185828601614330565b92505060206146328582860161423d565b9150509250929050565b614645816143dc565b811461465057600080fd5b50565b6000813590506146628161463c565b92915050565b60008060008060008060c087890312156146855761468461403e565b5b600061469389828a01614207565b96505060206146a489828a0161423d565b95505060406146b589828a0161423d565b94505060606146c689828a01614653565b93505060806146d789828a01614330565b92505060a06146e889828a01614330565b9150509295509295509295565b600080600080600080600060e0888a0312156147145761471361403e565b5b60006147228a828b01614207565b97505060206147338a828b01614207565b96505060406147448a828b0161423d565b95505060606147558a828b0161423d565b94505060806147668a828b01614653565b93505060a06147778a828b01614330565b92505060c06147888a828b01614330565b91505092959891949750929550565b600080604083850312156147ae576147ad61403e565b5b60006147bc85828601614207565b92505060206147cd85828601614207565b9150509250929050565b6147e0816145c2565b81146147eb57600080fd5b50565b6000813590506147fd816147d7565b92915050565b6000806040838503121561481a5761481961403e565b5b600061482885828601614207565b9250506020614839858286016147ee565b9150509250929050565b61484c816145c2565b82525050565b60007bffffffffffffffffffffffffffffffffffffffffffffffffffffffff82169050919050565b61488381614852565b82525050565b60408201600082015161489f6000850182614843565b5060208201516148b2602085018261487a565b50505050565b60006040820190506148cd6000830184614889565b92915050565b7f4e487b7100000000000000000000000000000000000000000000000000000000600052602260045260246000fd5b6000600282049050600182168061491a57607f821691505b6020821081141561492e5761492d6148d3565b5b50919050565b7f45524332303a207472616e7366657220616d6f756e742065786365656473206160008201527f6c6c6f77616e6365000000000000000000000000000000000000000000000000602082015250565b600061499060288361410e565b915061499b82614934565b604082019050919050565b600060208201905081810360008301526149bf81614983565b9050919050565b7f416363657373436f6e74726f6c3a2063616e206f6e6c792072656e6f756e636560008201527f20726f6c657320666f722073656c660000000000000000000000000000000000602082015250565b6000614a22602f8361410e565b9150614a2d826149c6565b604082019050919050565b60006020820190508181036000830152614a5181614a15565b9050919050565b7f4e487b7100000000000000000000000000000000000000000000000000000000600052601160045260246000fd5b6000614a928261421c565b9150614a9d8361421c565b9250827fffffffffffffffffffffffffffffffffffffffffffffffffffffffffffffffff03821115614ad257614ad1614a58565b5b828201905092915050565b7f4552433230566f7465733a20626c6f636b206e6f7420796574206d696e656400600082015250565b6000614b13601f8361410e565b9150614b1e82614add565b602082019050919050565b60006020820190508181036000830152614b4281614b06565b9050919050565b600082825260208201905092915050565b82818337600083830152505050565b6000614b758385614b49565b9350614b82838584614b5a565b614b8b83614152565b840190509392505050565b600060a082019050614bab600083018961446d565b614bb8602083018861446d565b614bc56040830187614292565b614bd26060830186614292565b8181036080830152614be5818486614b69565b9050979650505050505050565b600081519050614c0181614319565b92915050565b600060208284031215614c1d57614c1c61403e565b5b6000614c2b84828501614bf2565b91505092915050565b7f4552433230466c6173684d696e743a20696e76616c69642072657475726e207660008201527f616c756500000000000000000000000000000000000000000000000000000000602082015250565b6000614c9060248361410e565b9150614c9b82614c34565b604082019050919050565b60006020820190508181036000830152614cbf81614c83565b9050919050565b7f4552433230466c6173684d696e743a20616c6c6f77616e636520646f6573206e60008201527f6f7420616c6c6f7720726566756e640000000000000000000000000000000000602082015250565b6000614d22602f8361410e565b9150614d2d82614cc6565b604082019050919050565b60006020820190508181036000830152614d5181614d15565b9050919050565b6000614d638261421c565b9150614d6e8361421c565b925082821015614d8157614d80614a58565b5b828203905092915050565b7f45524332303a206275726e20616d6f756e74206578636565647320616c6c6f7760008201527f616e636500000000000000000000000000000000000000000000000000000000602082015250565b6000614de860248361410e565b9150614df382614d8c565b604082019050919050565b60006020820190508181036000830152614e1781614ddb565b9050919050565b7f4e487b7100000000000000000000000000000000000000000000000000000000600052603260045260246000fd5b7f45524332303a2064656372656173656420616c6c6f77616e63652062656c6f7760008201527f207a65726f000000000000000000000000000000000000000000000000000000602082015250565b6000614ea960258361410e565b9150614eb482614e4d565b604082019050919050565b60006020820190508181036000830152614ed881614e9c565b9050919050565b7f4552433230566f7465733a207369676e61747572652065787069726564000000600082015250565b6000614f15601d8361410e565b9150614f2082614edf565b602082019050919050565b60006020820190508181036000830152614f4481614f08565b9050919050565b6000608082019050614f606000830187614372565b614f6d602083018661446d565b614f7a6040830185614292565b614f876060830184614292565b95945050505050565b7f4552433230566f7465733a20696e76616c6964206e6f6e636500000000000000600082015250565b6000614fc660198361410e565b9150614fd182614f90565b602082019050919050565b60006020820190508181036000830152614ff581614fb9565b9050919050565b7f45524332305065726d69743a206578706972656420646561646c696e65000000600082015250565b6000615032601d8361410e565b915061503d82614ffc565b602082019050919050565b6000602082019050818103600083015261506181615025565b9050919050565b600060c08201905061507d6000830189614372565b61508a602083018861446d565b615097604083018761446d565b6150a46060830186614292565b6150b16080830185614292565b6150be60a0830184614292565b979650505050505050565b7f45524332305065726d69743a20696e76616c6964207369676e61747572650000600082015250565b60006150ff601e8361410e565b915061510a826150c9565b602082019050919050565b6000602082019050818103600083015261512e816150f2565b9050919050565b7f4552433230466c6173684d696e743a2077726f6e6720746f6b656e0000000000600082015250565b600061516b601b8361410e565b915061517682615135565b602082019050919050565b6000602082019050818103600083015261519a8161515e565b9050919050565b7f4552433230566f7465733a20746f74616c20737570706c79207269736b73206f60008201527f766572666c6f77696e6720766f74657300000000000000000000000000000000602082015250565b60006151fd60308361410e565b9150615208826151a1565b604082019050919050565b6000602082019050818103600083015261522c816151f0565b9050919050565b7f45524332303a206d696e7420746f20746865207a65726f206164647265737300600082015250565b6000615269601f8361410e565b915061527482615233565b602082019050919050565b600060208201905081810360008301526152988161525c565b9050919050565b7f53616665436173743a2076616c756520646f65736e27742066697420696e203260008201527f3234206269747300000000000000000000000000000000000000000000000000602082015250565b60006152fb60278361410e565b91506153068261529f565b604082019050919050565b6000602082019050818103600083015261532a816152ee565b9050919050565b7f53616665436173743a2076616c756520646f65736e27742066697420696e203360008201527f3220626974730000000000000000000000000000000000000000000000000000602082015250565b600061538d60268361410e565b915061539882615331565b604082019050919050565b600060208201905081810360008301526153bc81615380565b9050919050565b7f45524332303a20617070726f76652066726f6d20746865207a65726f2061646460008201527f7265737300000000000000000000000000000000000000000000000000000000602082015250565b600061541f60248361410e565b915061542a826153c3565b604082019050919050565b6000602082019050818103600083015261544e81615412565b9050919050565b7f45524332303a20617070726f766520746f20746865207a65726f20616464726560008201527f7373000000000000000000000000000000000000000000000000000000000000602082015250565b60006154b160228361410e565b91506154bc82615455565b604082019050919050565b600060208201905081810360008301526154e0816154a4565b9050919050565b7f45524332303a207472616e736665722066726f6d20746865207a65726f20616460008201527f6472657373000000000000000000000000000000000000000000000000000000602082015250565b600061554360258361410e565b915061554e826154e7565b604082019050919050565b6000602082019050818103600083015261557281615536565b9050919050565b7f45524332303a207472616e7366657220746f20746865207a65726f206164647260008201527f6573730000000000000000000000000000000000000000000000000000000000602082015250565b60006155d560238361410e565b91506155e082615579565b604082019050919050565b60006020820190508181036000830152615604816155c8565b9050919050565b7f45524332303a207472616e7366657220616d6f756e742065786365656473206260008201527f616c616e63650000000000000000000000000000000000000000000000000000602082015250565b600061566760268361410e565b91506156728261560b565b604082019050919050565b600060208201905081810360008301526156968161565a565b9050919050565b600081905092915050565b7f416363657373436f6e74726f6c3a206163636f756e7420000000000000000000600082015250565b60006156de60178361569d565b91506156e9826156a8565b601782019050919050565b60006156ff82614103565b615709818561569d565b935061571981856020860161411f565b80840191505092915050565b7f206973206d697373696e6720726f6c6520000000000000000000000000000000600082015250565b600061575b60118361569d565b915061576682615725565b601182019050919050565b600061577c826156d1565b915061578882856156f4565b91506157938261574e565b915061579f82846156f4565b91508190509392505050565b7f5061757361626c653a206e6f7420706175736564000000000000000000000000600082015250565b60006157e160148361410e565b91506157ec826157ab565b602082019050919050565b60006020820190508181036000830152615810816157d4565b9050919050565b7f4552433230536e617073686f743a206964206973203000000000000000000000600082015250565b600061584d60168361410e565b915061585882615817565b602082019050919050565b6000602082019050818103600083015261587c81615840565b9050919050565b7f4552433230536e617073686f743a206e6f6e6578697374656e74206964000000600082015250565b60006158b9601d8361410e565b91506158c482615883565b602082019050919050565b600060208201905081810360008301526158e8816158ac565b9050919050565b7f5061757361626c653a2070617573656400000000000000000000000000000000600082015250565b600061592560108361410e565b9150615930826158ef565b602082019050919050565b6000602082019050818103600083015261595481615918565b9050919050565b60006040820190506159706000830185614292565b61597d6020830184614292565b9392505050565b600061598f8261421c565b915061599a8361421c565b9250817fffffffffffffffffffffffffffffffffffffffffffffffffffffffffffffffff04831182151516156159d3576159d2614a58565b5b828202905092915050565b7f4e487b7100000000000000000000000000000000000000000000000000000000600052604160045260246000fd5b6000615a188261421c565b91506000821415615a2c57615a2b614a58565b5b600182039050919050565b7f537472696e67733a20686578206c656e67746820696e73756666696369656e74600082015250565b6000615a6d60208361410e565b9150615a7882615a37565b602082019050919050565b60006020820190508181036000830152615a9c81615a60565b9050919050565b600060a082019050615ab86000830188614372565b615ac56020830187614372565b615ad26040830186614372565b615adf6060830185614292565b615aec608083018461446d565b9695505050505050565b7f4e487b7100000000000000000000000000000000000000000000000000000000600052601260045260246000fd5b6000615b308261421c565b9150615b3b8361421c565b925082615b4b57615b4a615af6565b5b828204905092915050565b7f1901000000000000000000000000000000000000000000000000000000000000600082015250565b6000615b8c60028361569d565b9150615b9782615b56565b600282019050919050565b6000819050919050565b615bbd615bb88261430f565b615ba2565b82525050565b6000615bce82615b7f565b9150615bda8285615bac565b602082019150615bea8284615bac565b6020820191508190509392505050565b6000608082019050615c0f6000830187614372565b615c1c60208301866143e9565b615c296040830185614372565b615c366060830184614372565b95945050505050565b7f4e487b7100000000000000000000000000000000000000000000000000000000600052602160045260246000fd5b7f45434453413a20696e76616c6964207369676e61747572650000000000000000600082015250565b6000615ca460188361410e565b9150615caf82615c6e565b602082019050919050565b60006020820190508181036000830152615cd381615c97565b9050919050565b7f45434453413a20696e76616c6964207369676e6174757265206c656e67746800600082015250565b6000615d10601f8361410e565b9150615d1b82615cda565b602082019050919050565b60006020820190508181036000830152615d3f81615d03565b9050919050565b7f45434453413a20696e76616c6964207369676e6174757265202773272076616c60008201527f7565000000000000000000000000000000000000000000000000000000000000602082015250565b6000615da260228361410e565b9150615dad82615d46565b604082019050919050565b60006020820190508181036000830152615dd181615d95565b9050919050565b7f45434453413a20696e76616c6964207369676e6174757265202776272076616c60008201527f7565000000000000000000000000000000000000000000000000000000000000602082015250565b6000615e3460228361410e565b9150615e3f82615dd8565b604082019050919050565b60006020820190508181036000830152615e6381615e27565b9050919050565b7f4e487b7100000000000000000000000000000000000000000000000000000000600052603160045260246000fd5b7f45524332303a206275726e2066726f6d20746865207a65726f2061646472657360008201527f7300000000000000000000000000000000000000000000000000000000000000602082015250565b6000615ef560218361410e565b9150615f0082615e99565b604082019050919050565b60006020820190508181036000830152615f2481615ee8565b9050919050565b7f45524332303a206275726e20616d6f756e7420657863656564732062616c616e60008201527f6365000000000000000000000000000000000000000000000000000000000000602082015250565b6000615f8760228361410e565b9150615f9282615f2b565b604082019050919050565b60006020820190508181036000830152615fb681615f7a565b905091905056fea264697066735822122080ea4ed0bfa8d15c4d0fbd1ad0a3dc6e6e8b102149e69a1fb8c73d68ea7bb72264736f6c634300080a0033",
  "linkReferences": {},
  "deployedLinkReferences": {}
}