{
  "_format": "hh-sol-artifact-1",
  "contractName": "TokenEscrow",
  "sourceName": "contracts/TokenEscrow.sol",
  "abi": [
    {
      "inputs": [
        {
          "internalType": "string",
          "name": "_description",
          "type": "string"
        },
        {
          "internalType": "address",
          "name": "_erc20ContractAddress",
          "type": "address"
        },
        {
          "internalType": "address",
          "name": "_buyerAddress",
          "type": "address"
        },
        {
          "internalType": "address",
          "name": "_sellerAddress",
          "type": "address"
        },
        {
          "internalType": "address",
          "name": "_arbiterAddress",
          "type": "address"
        },
        {
          "internalType": "uint256",
          "name": "_arbiterPercentageWithEighteenZeros",
          "type": "uint256"
        },
        {
          "internalType": "uint256",
          "name": "_autoReleaseWaitDays",
          "type": "uint256"
        }
      ],
      "stateMutability": "nonpayable",
      "type": "constructor"
    },
    {
      "anonymous": false,
      "inputs": [
        {
          "indexed": false,
          "internalType": "address",
          "name": "releasedBy",
          "type": "address"
        },
        {
          "indexed": false,
          "internalType": "address",
          "name": "releasedTo",
          "type": "address"
        }
      ],
      "name": "FundsReleasedEvent",
      "type": "event"
    },
    {
      "inputs": [
        {
          "internalType": "address",
          "name": "_address",
          "type": "address"
        }
      ],
      "name": "amountReadyForWithdraw",
      "outputs": [
        {
          "internalType": "uint256",
          "name": "",
          "type": "uint256"
        }
      ],
      "stateMutability": "view",
      "type": "function"
    },
    {
      "inputs": [],
      "name": "arbiterAddress",
      "outputs": [
        {
          "internalType": "address",
          "name": "",
          "type": "address"
        }
      ],
      "stateMutability": "view",
      "type": "function"
    },
    {
      "inputs": [],
      "name": "arbiterPercentageWithEighteenZeros",
      "outputs": [
        {
          "internalType": "uint256",
          "name": "",
          "type": "uint256"
        }
      ],
      "stateMutability": "view",
      "type": "function"
    },
    {
      "inputs": [],
      "name": "autoReleaseWaitDays",
      "outputs": [
        {
          "internalType": "uint256",
          "name": "",
          "type": "uint256"
        }
      ],
      "stateMutability": "view",
      "type": "function"
    },
    {
      "inputs": [],
      "name": "buyerAddress",
      "outputs": [
        {
          "internalType": "address",
          "name": "",
          "type": "address"
        }
      ],
      "stateMutability": "view",
      "type": "function"
    },
    {
      "inputs": [],
      "name": "buyerReleased",
      "outputs": [
        {
          "internalType": "bool",
          "name": "",
          "type": "bool"
        }
      ],
      "stateMutability": "view",
      "type": "function"
    },
    {
      "inputs": [],
      "name": "contractCreationTimestamp",
      "outputs": [
        {
          "internalType": "uint256",
          "name": "",
          "type": "uint256"
        }
      ],
      "stateMutability": "view",
      "type": "function"
    },
    {
      "inputs": [],
      "name": "description",
      "outputs": [
        {
          "internalType": "string",
          "name": "",
          "type": "string"
        }
      ],
      "stateMutability": "view",
      "type": "function"
    },
    {
      "inputs": [],
      "name": "dispute",
      "outputs": [],
      "stateMutability": "nonpayable",
      "type": "function"
    },
    {
      "inputs": [],
      "name": "erc20ContractAddress",
      "outputs": [
        {
          "internalType": "address",
          "name": "",
          "type": "address"
        }
      ],
      "stateMutability": "view",
      "type": "function"
    },
    {
      "inputs": [],
      "name": "inDispute",
      "outputs": [
        {
          "internalType": "bool",
          "name": "",
          "type": "bool"
        }
      ],
      "stateMutability": "view",
      "type": "function"
    },
    {
      "inputs": [],
      "name": "inDisputeTimestamp",
      "outputs": [
        {
          "internalType": "uint256",
          "name": "",
          "type": "uint256"
        }
      ],
      "stateMutability": "view",
      "type": "function"
    },
    {
      "inputs": [],
      "name": "release",
      "outputs": [],
      "stateMutability": "nonpayable",
      "type": "function"
    },
    {
      "inputs": [
        {
          "internalType": "uint256",
          "name": "percentageToBuyerWithEighteenZeros",
          "type": "uint256"
        }
      ],
      "name": "resolveDispute",
      "outputs": [],
      "stateMutability": "nonpayable",
      "type": "function"
    },
    {
      "inputs": [],
      "name": "sellerAddress",
      "outputs": [
        {
          "internalType": "address",
          "name": "",
          "type": "address"
        }
      ],
      "stateMutability": "view",
      "type": "function"
    },
    {
      "inputs": [],
      "name": "sellerReleased",
      "outputs": [
        {
          "internalType": "bool",
          "name": "",
          "type": "bool"
        }
      ],
      "stateMutability": "view",
      "type": "function"
    },
    {
      "inputs": [],
      "name": "withdraw",
      "outputs": [],
      "stateMutability": "nonpayable",
      "type": "function"
    },
    {
      "inputs": [],
      "name": "withdrawingHasBegun",
      "outputs": [
        {
          "internalType": "bool",
          "name": "",
          "type": "bool"
        }
      ],
      "stateMutability": "view",
      "type": "function"
    }
  ],
  "bytecode": "0x60806040526000600760006101000a81548160ff0219169083151502179055506000600760016101000a81548160ff0219169083151502179055506000600760026101000a81548160ff0219169083151502179055503480156200006257600080fd5b5060405162001d2538038062001d258339818101604052810190620000889190620004b4565b8660009080519060200190620000a0929190620001c7565b5084600260006101000a81548173ffffffffffffffffffffffffffffffffffffffff021916908373ffffffffffffffffffffffffffffffffffffffff16021790555083600360006101000a81548173ffffffffffffffffffffffffffffffffffffffff021916908373ffffffffffffffffffffffffffffffffffffffff16021790555082600460006101000a81548173ffffffffffffffffffffffffffffffffffffffff021916908373ffffffffffffffffffffffffffffffffffffffff16021790555085600160006101000a81548173ffffffffffffffffffffffffffffffffffffffff021916908373ffffffffffffffffffffffffffffffffffffffff16021790555042600981905550816005819055508060068190555050505050505050620005eb565b828054620001d590620005b5565b90600052602060002090601f016020900481019282620001f9576000855562000245565b82601f106200021457805160ff191683800117855562000245565b8280016001018555821562000245579182015b828111156200024457825182559160200191906001019062000227565b5b50905062000254919062000258565b5090565b5b808211156200027357600081600090555060010162000259565b5090565b6000604051905090565b600080fd5b600080fd5b600080fd5b600080fd5b6000601f19601f8301169050919050565b7f4e487b7100000000000000000000000000000000000000000000000000000000600052604160045260246000fd5b620002e08262000295565b810181811067ffffffffffffffff82111715620003025762000301620002a6565b5b80604052505050565b60006200031762000277565b9050620003258282620002d5565b919050565b600067ffffffffffffffff821115620003485762000347620002a6565b5b620003538262000295565b9050602081019050919050565b60005b838110156200038057808201518184015260208101905062000363565b8381111562000390576000848401525b50505050565b6000620003ad620003a7846200032a565b6200030b565b905082815260208101848484011115620003cc57620003cb62000290565b5b620003d984828562000360565b509392505050565b600082601f830112620003f957620003f86200028b565b5b81516200040b84826020860162000396565b91505092915050565b600073ffffffffffffffffffffffffffffffffffffffff82169050919050565b6000620004418262000414565b9050919050565b620004538162000434565b81146200045f57600080fd5b50565b600081519050620004738162000448565b92915050565b6000819050919050565b6200048e8162000479565b81146200049a57600080fd5b50565b600081519050620004ae8162000483565b92915050565b600080600080600080600060e0888a031215620004d657620004d562000281565b5b600088015167ffffffffffffffff811115620004f757620004f662000286565b5b620005058a828b01620003e1565b9750506020620005188a828b0162000462565b96505060406200052b8a828b0162000462565b95505060606200053e8a828b0162000462565b9450506080620005518a828b0162000462565b93505060a0620005648a828b016200049d565b92505060c0620005778a828b016200049d565b91505092959891949750929550565b7f4e487b7100000000000000000000000000000000000000000000000000000000600052602260045260246000fd5b60006002820490506001821680620005ce57607f821691505b60208210811415620005e557620005e462000586565b5b50919050565b61172a80620005fb6000396000f3fe608060405234801561001057600080fd5b50600436106101165760003560e01c806386d1a69f116100a2578063c2b7b86811610071578063c2b7b8681461028b578063daafeb0d146102a7578063e486df15146102c5578063f240f7c3146102e3578063f246eac5146102ed57610116565b806386d1a69f146102275780638a3a9f3f146102315780639bc067441461024f578063a0f3888c1461026d57610116565b806343d89b02116100e957806343d89b021461017f57806344834aca1461019d57806350f908ff146101bb5780635d799306146101eb5780637284e4161461020957610116565b8063085ad3de1461011b578063397eeb0b146101395780633ccfd60b146101575780633d9b2ae614610161575b600080fd5b61012361030b565b6040516101309190610f03565b60405180910390f35b610141610311565b60405161014e9190610f03565b60405180910390f35b61015f610317565b005b610169610549565b6040516101769190610f5f565b60405180910390f35b61018761056f565b6040516101949190610f95565b60405180910390f35b6101a5610582565b6040516101b29190610f5f565b60405180910390f35b6101d560048036038101906101d09190610fe1565b6105a8565b6040516101e29190610f03565b60405180910390f35b6101f36106d7565b6040516102009190610f5f565b60405180910390f35b6102116106fd565b60405161021e91906110a7565b60405180910390f35b61022f61078b565b005b610239610971565b6040516102469190610f95565b60405180910390f35b610257610984565b6040516102649190610f03565b60405180910390f35b61027561098a565b6040516102829190610f95565b60405180910390f35b6102a560048036038101906102a091906110f5565b61099d565b005b6102af610df7565b6040516102bc9190610f95565b60405180910390f35b6102cd610e0a565b6040516102da9190610f5f565b60405180910390f35b6102eb610e30565b005b6102f5610ee4565b6040516103029190610f03565b60405180910390f35b60085481565b60065481565b600073__$482c9b3a47f6f0ec86a0b1e1c7231e7eb9$__639ae5a65733600260009054906101000a900473ffffffffffffffffffffffffffffffffffffffff16600760029054906101000a900460ff16600760019054906101000a900460ff16600854600654600160009054906101000a900473ffffffffffffffffffffffffffffffffffffffff16600b600360009054906101000a900473ffffffffffffffffffffffffffffffffffffffff16600760009054906101000a900460ff166009546040518c63ffffffff1660e01b81526004016103fe9b9a99989796959493929190611156565b602060405180830381865af415801561041b573d6000803e3d6000fd5b505050506040513d601f19601f8201168201806040525081019061043f9190611216565b905060008111610484576040517f08c379a000000000000000000000000000000000000000000000000000000000815260040161047b9061128f565b60405180910390fd5b6000600160009054906101000a900473ffffffffffffffffffffffffffffffffffffffff1690506001600a60006101000a81548160ff0219169083151502179055508073ffffffffffffffffffffffffffffffffffffffff1663a9059cbb33846040518363ffffffff1660e01b81526004016105019291906112af565b6020604051808303816000875af1158015610520573d6000803e3d6000fd5b505050506040513d601f19601f820116820180604052508101906105449190611304565b505050565b600360009054906101000a900473ffffffffffffffffffffffffffffffffffffffff1681565b600760029054906101000a900460ff1681565b600260009054906101000a900473ffffffffffffffffffffffffffffffffffffffff1681565b600073__$482c9b3a47f6f0ec86a0b1e1c7231e7eb9$__639ae5a65783600260009054906101000a900473ffffffffffffffffffffffffffffffffffffffff16600760029054906101000a900460ff16600760019054906101000a900460ff16600854600654600160009054906101000a900473ffffffffffffffffffffffffffffffffffffffff16600b600360009054906101000a900473ffffffffffffffffffffffffffffffffffffffff16600760009054906101000a900460ff166009546040518c63ffffffff1660e01b815260040161068f9b9a99989796959493929190611156565b602060405180830381865af41580156106ac573d6000803e3d6000fd5b505050506040513d601f19601f820116820180604052508101906106d09190611216565b9050919050565b600460009054906101000a900473ffffffffffffffffffffffffffffffffffffffff1681565b6000805461070a90611360565b80601f016020809104026020016040519081016040528092919081815260200182805461073690611360565b80156107835780601f1061075857610100808354040283529160200191610783565b820191906000526020600020905b81548152906001019060200180831161076657829003601f168201915b505050505081565b600260009054906101000a900473ffffffffffffffffffffffffffffffffffffffff1673ffffffffffffffffffffffffffffffffffffffff163373ffffffffffffffffffffffffffffffffffffffff16141561085c576001600760006101000a81548160ff0219169083151502179055507f5475862d3af0fe837072dd8749dd5f3a9c85ac701d0602c559d1c829934bbb4533600360009054906101000a900473ffffffffffffffffffffffffffffffffffffffff1660405161084f929190611392565b60405180910390a161096f565b600360009054906101000a900473ffffffffffffffffffffffffffffffffffffffff1673ffffffffffffffffffffffffffffffffffffffff163373ffffffffffffffffffffffffffffffffffffffff16141561092d576001600760016101000a81548160ff0219169083151502179055507f5475862d3af0fe837072dd8749dd5f3a9c85ac701d0602c559d1c829934bbb4533600260009054906101000a900473ffffffffffffffffffffffffffffffffffffffff16604051610920929190611392565b60405180910390a161096f565b600061096e576040517f08c379a000000000000000000000000000000000000000000000000000000000815260040161096590611407565b60405180910390fd5b5b565b600760019054906101000a900460ff1681565b60055481565b600760009054906101000a900460ff1681565b600460009054906101000a900473ffffffffffffffffffffffffffffffffffffffff1673ffffffffffffffffffffffffffffffffffffffff163373ffffffffffffffffffffffffffffffffffffffff1614610a2d576040517f08c379a0000000000000000000000000000000000000000000000000000000008152600401610a2490611473565b60405180910390fd5b600760029054906101000a900460ff16610a7c576040517f08c379a0000000000000000000000000000000000000000000000000000000008152600401610a73906114df565b60405180910390fd5b6000600160009054906101000a900473ffffffffffffffffffffffffffffffffffffffff16905060008173ffffffffffffffffffffffffffffffffffffffff166370a08231306040518263ffffffff1660e01b8152600401610ade9190610f5f565b602060405180830381865afa158015610afb573d6000803e3d6000fd5b505050506040513d601f19601f82011682018060405250810190610b1f9190611216565b905060008111610b64576040517f08c379a0000000000000000000000000000000000000000000000000000000008152600401610b5b9061154b565b60405180910390fd5b68056bc75e2d6310000060055468056bc75e2d63100000610b85919061159a565b82610b9091906115ce565b610b9a9190611657565b81610ba5919061159a565b600b6000600460009054906101000a900473ffffffffffffffffffffffffffffffffffffffff1673ffffffffffffffffffffffffffffffffffffffff1673ffffffffffffffffffffffffffffffffffffffff168152602001908152602001600020819055506000600b6000600460009054906101000a900473ffffffffffffffffffffffffffffffffffffffff1673ffffffffffffffffffffffffffffffffffffffff1673ffffffffffffffffffffffffffffffffffffffff1681526020019081526020016000205482610c79919061159a565b905068056bc75e2d631000008468056bc75e2d63100000610c9a919061159a565b82610ca591906115ce565b610caf9190611657565b81610cba919061159a565b600b6000600260009054906101000a900473ffffffffffffffffffffffffffffffffffffffff1673ffffffffffffffffffffffffffffffffffffffff1673ffffffffffffffffffffffffffffffffffffffff16815260200190815260200160002081905550600b6000600260009054906101000a900473ffffffffffffffffffffffffffffffffffffffff1673ffffffffffffffffffffffffffffffffffffffff1673ffffffffffffffffffffffffffffffffffffffff1681526020019081526020016000205481610d8c919061159a565b600b6000600360009054906101000a900473ffffffffffffffffffffffffffffffffffffffff1673ffffffffffffffffffffffffffffffffffffffff1673ffffffffffffffffffffffffffffffffffffffff1681526020019081526020016000208190555050505050565b600a60009054906101000a900460ff1681565b600160009054906101000a900473ffffffffffffffffffffffffffffffffffffffff1681565b600260009054906101000a900473ffffffffffffffffffffffffffffffffffffffff1673ffffffffffffffffffffffffffffffffffffffff163373ffffffffffffffffffffffffffffffffffffffff1614610ec0576040517f08c379a0000000000000000000000000000000000000000000000000000000008152600401610eb7906116d4565b60405180910390fd5b6001600760026101000a81548160ff02191690831515021790555042600881905550565b60095481565b6000819050919050565b610efd81610eea565b82525050565b6000602082019050610f186000830184610ef4565b92915050565b600073ffffffffffffffffffffffffffffffffffffffff82169050919050565b6000610f4982610f1e565b9050919050565b610f5981610f3e565b82525050565b6000602082019050610f746000830184610f50565b92915050565b60008115159050919050565b610f8f81610f7a565b82525050565b6000602082019050610faa6000830184610f86565b92915050565b600080fd5b610fbe81610f3e565b8114610fc957600080fd5b50565b600081359050610fdb81610fb5565b92915050565b600060208284031215610ff757610ff6610fb0565b5b600061100584828501610fcc565b91505092915050565b600081519050919050565b600082825260208201905092915050565b60005b8381101561104857808201518184015260208101905061102d565b83811115611057576000848401525b50505050565b6000601f19601f8301169050919050565b60006110798261100e565b6110838185611019565b935061109381856020860161102a565b61109c8161105d565b840191505092915050565b600060208201905081810360008301526110c1818461106e565b905092915050565b6110d281610eea565b81146110dd57600080fd5b50565b6000813590506110ef816110c9565b92915050565b60006020828403121561110b5761110a610fb0565b5b6000611119848285016110e0565b91505092915050565b61112b81610f3e565b82525050565b61113a81610f7a565b82525050565b61114981610eea565b82525050565b8082525050565b60006101608201905061116c600083018e611122565b611179602083018d611122565b611186604083018c611131565b611193606083018b611131565b6111a0608083018a611140565b6111ad60a0830189611140565b6111ba60c0830188611122565b6111c760e083018761114f565b6111d5610100830186611122565b6111e3610120830185611131565b6111f1610140830184611140565b9c9b505050505050505050505050565b600081519050611210816110c9565b92915050565b60006020828403121561122c5761122b610fb0565b5b600061123a84828501611201565b91505092915050565b7f4e6f2066756e647320617661696c61626c650000000000000000000000000000600082015250565b6000611279601283611019565b915061128482611243565b602082019050919050565b600060208201905081810360008301526112a88161126c565b9050919050565b60006040820190506112c46000830185610f50565b6112d16020830184610ef4565b9392505050565b6112e181610f7a565b81146112ec57600080fd5b50565b6000815190506112fe816112d8565b92915050565b60006020828403121561131a57611319610fb0565b5b6000611328848285016112ef565b91505092915050565b7f4e487b7100000000000000000000000000000000000000000000000000000000600052602260045260246000fd5b6000600282049050600182168061137857607f821691505b6020821081141561138c5761138b611331565b5b50919050565b60006040820190506113a76000830185610f50565b6113b46020830184610f50565b9392505050565b7f4d757374206265204275796572206f722053656c6c6572000000000000000000600082015250565b60006113f1601783611019565b91506113fc826113bb565b602082019050919050565b60006020820190508181036000830152611420816113e4565b9050919050565b7f4d75737420626520417262697465720000000000000000000000000000000000600082015250565b600061145d600f83611019565b915061146882611427565b602082019050919050565b6000602082019050818103600083015261148c81611450565b9050919050565b7f4d75737420626520696e20646973707574650000000000000000000000000000600082015250565b60006114c9601283611019565b91506114d482611493565b602082019050919050565b600060208201905081810360008301526114f8816114bc565b9050919050565b7f436f6e7472616374206d75737420686f6c642062616c616e6365000000000000600082015250565b6000611535601a83611019565b9150611540826114ff565b602082019050919050565b6000602082019050818103600083015261156481611528565b9050919050565b7f4e487b7100000000000000000000000000000000000000000000000000000000600052601160045260246000fd5b60006115a582610eea565b91506115b083610eea565b9250828210156115c3576115c261156b565b5b828203905092915050565b60006115d982610eea565b91506115e483610eea565b9250817fffffffffffffffffffffffffffffffffffffffffffffffffffffffffffffffff048311821515161561161d5761161c61156b565b5b828202905092915050565b7f4e487b7100000000000000000000000000000000000000000000000000000000600052601260045260246000fd5b600061166282610eea565b915061166d83610eea565b92508261167d5761167c611628565b5b828204905092915050565b7f4d75737420626520427579657200000000000000000000000000000000000000600082015250565b60006116be600d83611019565b91506116c982611688565b602082019050919050565b600060208201905081810360008301526116ed816116b1565b905091905056fea2646970667358221220c9fe7142e751f98f30aaead877314564b114f9a4dc3fba75176ba05d0cf7340c64736f6c634300080a0033",
  "linkReferences": {
    "contracts/TokenEscrowLibrary.sol": {
      "TokenEscrowLibrary": [
        {
          "length": 20,
          "start": 2326
        },
        {
          "length": 20,
          "start": 2983
        }
      ]
    }
  },
  "deployedLinkReferences": {
    "contracts/TokenEscrowLibrary.sol": {
      "TokenEscrowLibrary": [
        {
          "length": 20,
          "start": 795
        },
        {
          "length": 20,
          "start": 1452
        }
      ]
    }
  }
}